:100000000C945F0E0C94870E0C94870E0C94870E44
:100010000C94870E0C94870E0C94870E0C94870E0C
:100020000C94870E0C94870E0C94870E0C94870EFC
:100030000C94870E0C94870E0C94870E0C94870EEC
:100040000C9440110C94870E0C94B0110C948A11EE
:100050000C94870E0C94870E0C94870E0C94870ECC
:100060000C94870E0C94870E202020202020202026
:100070002020202020202020202020202020202080
:100080002020202020202020202020202020202070
:10009000202020202020206161616161202020201B
:1000A0002020202020202020202020202020202050
:1000B000202020202020202020616161202020207D
:1000C0002020202020202020202020200020202050
:1000D0002020202020202020202020202020202020
:1000E0002020202020202020202020202020202010
:1000F000202020202020202020202061612020207E
:10010000616161202020202020202020202020202C
:1001100020202020202020202020202061616161DB
:10012000616120202020202020202020202020204D
:1001300020002020202020202020202020202020DF
:1001400020202020202020202020202020202020AF
:10015000202020202020202020202020202020209F
:1001600061612061202061616161202020202020C8
:10017000202020202020202020202020202020207F
:10018000616120202020616120202020202020206B
:10019000202020202020002020202020202020207F
:1001A000202020202020202020202020202020204F
:1001B000202020202020202020202020202020203F
:1001C0002020202020206120206161206161616168
:1001D000202020202020202020202020202020201F
:1001E00020202020616120206120206161202020CA
:1001F000202020202020202020202000202020201F
:1002000020202020202020202020202020202020EE
:1002100020202020202020202020202020202020DE
:10022000202020202020202020202061202061610B
:100230006120616161616120202020202020202038
:1002400020202020202020206161202020206120EB
:10025000206120202020202020202020202020205D
:1002600000202020202020202020202020202020AE
:10027000202020202020202020202020202020207E
:10028000202020202020202020202020202020206E
:100290006161202061612020616120616120202056
:1002A00020202020202020202020202061612020CC
:1002B00061616161612061202020202020202020B8
:1002C000202020202000202020202020202020204E
:1002D000202020202020202020202020202020201E
:1002E000202020202020202020202020202020200E
:1002F000202020202020612020616120202020203B
:10030000206161612020202020202020202020202A
:1003100061612020616161612020206161202020D5
:1003200020202020202020202020002020202020ED
:1003300020202020202020202020202020202020BD
:1003400020202020202020202020202020202020AD
:10035000202020202020202020202061202020611B
:1003600061612020612020206161616161616161C2
:100370006161616161612020202061612020202075
:10038000616120202020202020202020202020000B
:10039000202020202020202020202020202020205D
:1003A000202020202020202020202020202020204D
:1003B000202020202020202020202020202020203D
:1003C0006161202020616120202061202020616166
:1003D0006120202020202061616120202061616156
:1003E000202020202061612020202020202020208B
:1003F000202020200020202020202020202020201D
:1004000020202020202020202020202020202020EC
:1004100020202020202020202020202020202020DC
:100420002020202020206120206161612020206187
:100430002061202020206120202020616161202077
:100440002020616161206120202061612020202026
:1004500020202020202020202000202020202020BC
:100460002020202020202020202020616161616147
:1004700061612020202020202020202020202020FA
:100480002020202020202020202020616120616168
:100490006120202061202020202061202020206158
:1004A0006120202020202061612020612020206107
:1004B000612020202020202020202020202000201B
:1004C00020202020202020202020202020206161AA
:1004D0006161202020206120202020202020202059
:1004E000202020202020202020202020202020200C
:1004F0002061206161612020202020206120206176
:1005000020206161612020202020202061612020A6
:1005100061202061616120202020202020202020D7
:1005200020202000202020202020202020202020EB
:1005300020206161612020202020206120202020B7
:1005400020202020202020202020202020202020AB
:100550002020202020206120616161612020202056
:1005600061202020202061206120202020202020C8
:100570002061612020612020616120202020202036
:10058000202020202020202000202020202020208B
:100590002020202020206161612020202020202098
:1005A000612020202020202020202020202020200A
:1005B00020202020202020202020206161616161F6
:1005C00020202020206120206120616161612020A5
:1005D0002020202020202061202020206120612058
:1005E000202020202020202020202020200020202B
:1005F00020202020202020202020616161612020F7
:1006000020202020206120202020202020202020A9
:1006100020202020202020202020202020202020DA
:100620002061616120202020206161202020206144
:100630002061202020202020202020202020206138
:100640002061206120202020202020202020202028
:100650002020002020202020202020202020206179
:100660002061202020202020206120202020202008
:10067000202020202020202020202020202020207A
:100680002020202020206161206120202061612025
:100690002020206161206120202020202020202097
:1006A00020202020206120206120202020202020C8
:1006B000202020202020200020202020202020205A
:1006C00020202061616161202020202020616120A4
:1006D000202020202020202020202020202020201A
:1006E0002020202020202020202020616161612006
:1006F0002061616120202020612061202061202074
:1007000020202020202020202061612061612020E5
:1007100020202020202020202020202000202020F9
:1007200020202020202020616120616120202020C5
:100730002061612020202020202020202020202037
:1007400020202020202020202020202020202020A9
:100750006120612020616161202020202020206113
:1007600020612020202020202020202020206161C6
:1007700020616120202020202020202020202020F7
:100780002000202020202020202020206120202048
:1007900020202020206161202020202020202020D7
:1007A0002020202020202020202020202020202049
:1007B00020202020206120612061612061202020F4
:1007C0002020206161616120202020202020202025
:1007D0002020202061612061202020202020202056
:1007E0002020202020200020202020202020202029
:1007F00061612020612020202020616120202020B4
:1008000020202020202020202020202020202020E8
:1008100020202020202020202020612061616120D4
:100820002061202020202061612020202020202005
:100830002020202020202020202061206120202036
:1008400020202020202020202020200020202020C8
:100850002020202020616120206120202020206194
:100860002020202020202020202020202020202088
:100870002020202020202020202020202020206137
:1008800020616161612020202020202061202061E2
:100890006120202020202020202020202020202017
:1008A00020616120202020202020202020202020C6
:1008B0000020202020202020202061202020202017
:1008C00020202061612020202020202020202020A6
:1008D0002020202020202020202020202020202018
:1008E0002020206161206120616161202020202082
:1008F0002020616161616161202020202020202072
:100900002020202020616161202020202020202024
:1009100020202020200020202020202020202061B6
:100920002020202020202020616120202020202045
:1009300020202020202020202020202020202020B7
:100940002020202020202020616161612061206121
:100950002020202020206161206161206120206111
:100960002020202020202020202061616161202083
:100970002020202020202020202000202020202097
:100980002020206161202020202020202061612063
:100990002020202020202020202020202020202057
:1009A0002020202020202020202020202061616184
:1009B00020612020612020202020206161206161B1
:1009C000206120616161616161616161202020615C
:1009D0006120616120202020202020202020200074
:1009E0002020202020202020616120202020202085
:1009F0002020616120202020202020202020202075
:100A000020202020202020202020202020202020E6
:100A1000202061616161616161612020202020618D
:100A2000616161202061202020206161616161613C
:100A300061612020616120616161202020202020EF
:100A40002020202000202020202020202061612044
:100A50002020202020202061612020202020202014
:100A60002020202020202020202020202020202086
:100A700020202020202020616120202020206120B3
:100A800020202020612020616161202020206161E0
:100A9000612020202020202061616120612061618F
:100AA0002020202020202020200020202020202066
:100AB0002020616120202020202020206161202032
:100AC0002020202020202020202020202020202026
:100AD0002020202020202020202020202061206194
:100AE0002020206120202020206120206161616180
:100AF000616161616120202020202020206161202F
:100B00006120202061612020202020202020002042
:100B10002020202020202061612020202020202053
:100B20002061612020202020202020202020202043
:100B300020202020202020202020202020202020B5
:100B40002020616120202020202020202020202023
:100B500061616120202020202020202020202020D2
:100B60002061616120202020202061612020202040
:100B70002020200020202020202020202061202054
:100B800020202020202061612020202020202020E3
:100B90002020202020202020202020202020202055
:100BA0002020202020202061616120206120202041
:100BB00020202020612020616161616161616161AB
:100BC0002020202020206161616120202020202021
:100BD00061202020202020200020202020202020F4
:100BE0002020616120202020202020206120202042
:100BF00020202020202020202020202020202020F5
:100C0000202020202020202020616161616161205E
:100C1000206161616161612020612061612020208B
:100C20002020202020202020202020616120612001
:100C30002020202020612020202020202000202093
:100C40002020202020202061612020202020202022
:100C50002061612020202020202020202020202012
:100C60002020202020202020202020202020616102
:100C700061616161612061206161616120202020EA
:100C8000202061616161202020202020202020611F
:100C9000616161202020202020206161202020200F
:100CA00020200020202020202020202020616120E2
:100CB00020202020202020612020202020202020F3
:100CC0002020202020202020202020202020202024
:100CD0006161616161616161616161206161616145
:100CE0002020206120612020202061612020202000
:100CF00020202061616161202020202020202061AF
:100D000061202020202020002020202020202020C2
:100D1000202061616120202020202020616120208E
:100D20002020202020202020202020202061616100
:100D300061616161616161612061202020616161A7
:100D400061616120202061616161612020616161D8
:100D5000206120202020206161616120202020204E
:100D6000612020206161612020202020002020209F
:100D700020202020202020206161612020202020B0
:100D8000202061612020202020202061202020615F
:100D9000616161616120206161202020202020208C
:100DA0006161616161612061612020612061612078
:100DB0006161612020616161612020616161612068
:100DC000202061616161202020206161612020205C
:100DD00020002020202020202020202020206161B1
:100DE00061202020202020206161612020202020FF
:100DF00020616161616120202020202020202020AE
:100E000020206161202020206161616161612020DA
:100E1000616161202061202061202020612020204C
:100E20006161616120206161612061202020206179
:100E30002061612020200020202020202020202050
:100E400020202061616161612020202020206161DB
:100E5000616161616161616120202020202020208A
:100E600020612020206120202020206161616120FC
:100E700020206161616161616161206120206120E8
:100E8000202020206161612020616161202020619B
:100E90002020202020202061202020002020202031
:100EA00020202020202020202061616161612020FD
:100EB000202020206161616161616120202020206B
:100EC00020202020206120202020202020202061A0
:100ED00020206161612020202020206120206120CD
:100EE000206120206120202061616120206161203B
:100EF000202020206120202020202020616120202F
:100F000000202020202020202020202020202061C0
:100F10006161616120202061616161612020202088
:100F20002020202020202020202061202020202080
:100F300020616161612061202061616120202020A9
:100F40006120202061202061616161206161202099
:100F500020206161202020202061202020202020CE
:100F60002020612020002020202020202020202060
:100F700020202020206161616161616161612061E7
:100F8000202020612020202020202061202020619E
:100F9000206120202061202020206120202061610C
:100FA00061616161616161616161616161612020B3
:100FB000202061612061616120612020202061206A
:100FC0002020202020202061202000202020202000
:100FD000202020202020202061202020616161200D
:100FE000616120206120202061616120202020207B
:100FF00020206161612020206161202020202020AC
:101000006161206161202061616161616161616193
:101010002020206161612020206161616120202009
:1010200020616120202020202020202061612000DC
:1010300020202020202020202020202061616161AC
:10104000616120202020202020202020202020201E
:10105000202020612020202020202020202020204F
:1010600020202061202020206120206120202020BD
:1010700020616120206120202020206120616161A9
:101080002020202020202020202020202020202060
:10109000202061200020202020202020616161612B
:1010A00061616161202020202020202020612020FB
:1010B00020206120202020202020202020202020EF
:1010C000202020202020202020202020616120209E
:1010D000206161612020202061202020202061618A
:1010E00061616161202020202020202020206120BB
:1010F000202020202020206161002020202020614D
:10110000616161202020202020202020202020201C
:10111000202020202061206120202020612020200C
:1011200020202020202020202020202020202020BF
:1011300020616120202020612020202020202020EC
:10114000612061616161202020202020202020205A
:1011500020202020612020202020202061610020EC
:1011600020206161612020202020202020202020BC
:1011700020206161616161616161616161616161E1
:1011800020202020616120202020202020202020DD
:10119000202020202061612020202020206161204B
:1011A000202020202061616120202020202020207C
:1011B00020202020202020202020612020202020EE
:1011C000206161002020616120202020202020203B
:1011D000202020202061616120202020202020204C
:1011E0002061616161616161616161202020202075
:1011F000202020202020202020206161202020206D
:1012000020202061612020202061612020202020DA
:10121000202020202020202061612020202020610B
:101220006120202020612061002061616120202058
:101230002020202020206161616161202020202069
:10124000202020202020202020202020202020615D
:10125000202020202020202020202020202020614D
:1012600020202020202020206161202020206120BB
:1012700020202020202020202020616161202020AB
:10128000202020202061202020206120610020617A
:10129000202020202020202020616161612020204A
:1012A000202020202020202020202020202020203E
:1012B00020202020612020202020202020202020ED
:1012C0002020206161616120612020202020612098
:1012D000202020202020202020202020616161610A
:1012E000202020202020202020206161202020207C
:1012F0002061006161206120202020206161202088
:1013000020202020202020202020202020202020DD
:10131000202020202020206120202020202020208C
:101320002020202020202020616120616161202078
:10133000202020616120202020202020202020202B
:101340006161612020202020202020202020206199
:101350006120202061206100616161202020202027
:101360006161616161202020202020202020202038
:10137000202020202020202020206120202020202C
:1013800020202020202020202020202020616120DB
:101390002020616161612020612020202020202008
:1013A000202020206161612020202020202020207A
:1013B0002020202061612020616120610061612086
:1013C000202020612061202020202020202020209B
:1013D000202020202020202020202020202020200D
:1013E00061202020202020202020202020202020BC
:1013F00020616120202020206161612020202020A8
:10140000202020202020202061612020202020205A
:101410002020202020202020202061202061206109
:101420006100206161616161206161616120202052
:1014300020202020202020202020202020202020AC
:1014400020202061612020206120202020202020D9
:101450002020202020616120616120202020616106
:1014600061202020202020202020202020612020FA
:1014700020202020202020202020202020206161EA
:101480002020202061610020202061616161616174
:101490006161612020202020202020616120202007
:1014A0006161616161616161616161202020202071
:1014B0002020202020202020206161616161616165
:1014C0006120202061206120202020202020202059
:1014D00020612020202020202020202020202020CB
:1014E0002020202061612020206120002020202059
:1014F0002020202061612020202020612061616166
:10150000616161616161612020616161616161614D
:101510006161616161616120202020202020616182
:101520002061616161612020206161616120202072
:10153000202020202061202020202020202020206A
:101540002020202020202020202061612061612097
:1015500000202020202020202061616161616161E4
:1015600061616120202020202020202020202020B8
:1015700020202020202020202020616161616161E5
:101580006161616120202020206161616120206112
:1015900061612020202020202020202020202020C9
:1015A00020202020202020202020202020206120FA
:1015B0006120616120002020202020202020202088
:1015C0006161616161612020202020202020202095
:1015D000202020202020202020202020202020200B
:1015E00020202061616161612020202020202020B6
:1015F0006161612061616161202020202020202024
:1016000020202020202020202020202020202020DA
:1016100020202020616161616120002020202020A5
:1016200020202020202020202020202020202020BA
:1016300020202020202020202020202020202020AA
:1016400020202020202020202020206161206120D7
:101650002020202020206161202061616120202045
:1016600020202020202020202020202061616120B7
:1016700020206161202061202020616161612000C3
:10168000202020202020202020202020202020205A
:10169000202020202020202020202020202020204A
:1016A00020202020202020202020202020202061F9
:1016B00061202061612020202020202061612020E5
:1016C00061612020202020202061616161616161D1
:1016D00061616161616161612020202061202020C1
:1016E0006161202000202020202020202020202098
:1016F00020202020202020202020202020202020EA
:1017000020202020202020202020202020202020D9
:1017100020202061616161202020202020202020C5
:10172000202061202061616120206161616161612F
:1017300020202061202020202061616120202020A5
:1017400020612020206161202000202020202020F6
:101750002020202020202020202020202020202089
:101760002020202020202020202020202020202079
:101770002020202020206161616120202020202065
:101780002020202020612020616161616161616110
:1017900061616161612020202061202020202020C3
:1017A0006120202020202061202020612020002096
:1017B0002020202020202020202020202020202029
:1017C0002020202020202020202020202020202019
:1017D0002020202020202020202061612020202087
:1017E00020202020202020206120202061616120F5
:1017F0002061612020202061206161202020206163
:101800002020202020206120202020206120202056
:101810006161200020202020202020202020202066
:1018200020202020202020202020202020202020B8
:101830002020202020202020202020202020616126
:101840006120202020206120202020206161206153
:1018500061206161616120202020202020612061C1
:1018600020202020616120202020202061202020B5
:101870002061612020616120002020202020202084
:101880002020202020202020202020202020202058
:101890002020202020202020202020202020202048
:1018A00020202061616120612020206120202020F3
:1018B000206161616161616161616120612020205D
:1018C0002020202020202020202061612020202096
:1018D00020612020206161612020616120002020A2
:1018E00020202020202020202020202020202020F8
:1018F00020202020202020202020202020202020E8
:1019000020202020202020206161202061206120D3
:101910006120202020206161616120202020202082
:101920006161612020202020202020612020206172
:101930006120202020202020202061616120616121
:101940006120002020202020202020202020202076
:101950002020202020202020202020202020202087
:1019600020202020202020202020202020612061F5
:1019700020612061206120612020206161612020A0
:1019800061202020202020202061202020202020D5
:101990002020202061612020202020612020206143
:1019A0006161616161202000202020202020202012
:1019B0002020202020202020202020202020202027
:1019C0002020202020202020202020202020202017
:1019D000202061616161612061206120616161613C
:1019E0006161612061202061612020202020202071
:1019F00020202020202061202020612020206161E3
:101A0000616161616161612020202020002020202F
:101A100020202020202020202020202020202020C6
:101A200020202020202020202020202020202020B6
:101A3000202020202020206161616161616161615D
:101A4000616161616161616161612020612020618A
:101A50002061202020202020202020616161616100
:101A6000616161616161616120202020202020206E
:101A70002000202020202020202020202020202086
:101A80002020202020202020202020202020202056
:101A90002020202020202020202020202061616183
:101AA00061616161616161612020616161612061E9
:101AB00020612061206161202020202020206161A0
:101AC0006161616120202020202020202020202012
:101AD0002020202020200020202020202020202026
:101AE00020202020202020202020202020202020F6
:101AF00020202020202020202020202020202020E6
:101B00002020202020616161206120202020206190
:101B100061616120612061206120612020202020FE
:101B20002061616161612020202020202020202070
:101B300020202020202020202020200020202020C5
:101B40002020202020202020202020202020202095
:101B50002020202020202020202020202020202085
:101B60002020202020202020202020202020202075
:101B7000202020202061616161616161616161619A
:101B80006120202061616120202020202020202051
:101B90002020202020202020202020202020202045
:101BA0000020202020202020202020202020202055
:101BB0002020202020202020202020202020202025
:101BC0002020202020202020202020202020202015
:101BD0002020202020202020202020206161616101
:101BE000612061612020616161612020202020202E
:101BF00020202020202020202020202020202020E5
:101C000020202020200020202020202020202020F4
:101C100020202020202020202020202020202020C4
:101C200020202020202020202020202020202020B4
:101C300020202020202020202020202020202020A4
:101C4000202020202061616161616161612020208C
:101C50002020202020202020202020202020202084
:101C6000202020202020202020200000000008002C
:101C70000201000003040700000000000000000053
:101C8000000000250028002B000000000024002791
:101C9000002A0004040404040404040202020202F0
:101CA0000203030303030301020408102040800120
:101CB000020408102001020408102000501311240F
:101CC0001FBECFEFD8E0DEBFCDBF11E0A0E0B1E096
:101CD000E0E7F8E202C005900D92A63CB107D9F703
:101CE00022E0A6ECB1E001C01D92AC36B207E1F7EC
:101CF0001EE0CFE5DEE004C02197FE010E9417142C
:101D0000CE35D107C9F70E94E2110C9436140C9419
:101D1000000090E0FC01E955F34E2491FC01ED56E2
:101D2000F34E8491882399F090E0880F991FFC016D
:101D3000E757F34EA591B491FC01E158F34E85911C
:101D400094918FB7F894EC91E22BEC938FBF0895A8
:101D500090E0FC01E559F34E2491FC01E955F34E66
:101D60003491FC01ED56F34EE491EE2309F43CC0AE
:101D7000222339F1233091F038F42130A9F02230B8
:101D800001F584B58F7D12C0273091F02830A1F085
:101D90002430B9F4809180008F7D03C08091800051
:101DA0008F77809380000DC084B58F7784BD09C084
:101DB0008091B0008F7703C08091B0008F7D8093B9
:101DC000B000F0E0EE0FFF1FE158F34EA591B49183
:101DD0009FB7F894611104C08C913095382302C0EC
:101DE000EC913E2B3C939FBF08953FB7F8948091B0
:101DF000CB019091CC01A091CD01B091CE0126B53F
:101E0000A89B05C02F3F19F00196A11DB11D3FBF32
:101E1000BA2FA92F982F8827820F911DA11DB11DC0
:101E2000BC01CD0142E0660F771F881F991F4A95BC
:101E3000D1F708958F929F92AF92BF92CF92DF9287
:101E4000EF92FF926B017C010E94F50E4B015C0149
:101E5000C114D104E104F104F1F00E94F50EDC019B
:101E6000CB0188199909AA09BB09883E9340A105AD
:101E7000B10570F321E0C21AD108E108F10888EE3B
:101E8000880E83E0981EA11CB11CC114D104E1048A
:101E9000F10419F7DDCFFF90EF90DF90CF90BF9066
:101EA000AF909F908F900895CF92DF92EF92FF9224
:101EB0000F931F93CF93DF936C017A018B01C0E0E6
:101EC000D0E0CE15DF0581F0D8016D918D01D601EE
:101ED000ED91FC910190F081E02DC6010995892BCF
:101EE00011F02196EECF7E01C701DF91CF911F91B6
:101EF0000F91FF90EF90DF90CF900895089580E0CC
:101F000090E00895FC01538D448D252F30E0842FFF
:101F100090E0821B930B541710F0CF960895019711
:101F20000895FC01918D828D981761F0828DDF01FB
:101F3000A80FB11D5D968C91928D9F5F9F73928FBC
:101F400090E008958FEF9FEF0895FC01918D828DB1
:101F5000981731F0828DE80FF11D858D90E008957E
:101F60008FEF9FEF0895FC01918D228D892F90E0D6
:101F7000805C9F4F821B91098F73992708958FEC86
:101F800091E00E94B30F21E0892B09F420E0822F19
:101F90000895FC01848DDF01A80FB11DA35ABF4F26
:101FA0002C91848D90E001968F739927848FA68958
:101FB000B7892C93A089B1898C91837080648C93AC
:101FC000938D848D981306C00288F389E02D80815B
:101FD0008F7D80830895EF92FF920F931F93CF938D
:101FE000DF93EC0181E0888F9B8D8C8D981305C069
:101FF000E889F989808185FD26C0F62E0B8D10E0D9
:102000000F5F1F4F0F731127E02E8C8DE8120CC04D
:102010000FB607FCFACFE889F989808185FFF5CFF3
:10202000CE010E94C90FF1CF8B8DFE01E80FF11D8B
:10203000E35AFF4FF0829FB7F8940B8FEA89FB8930
:10204000808180620AC09FB7F894EE89FF8960831F
:10205000E889F98980818370806480839FBF81E0F3
:1020600090E0DF91CF911F910F91FF90EF90089535
:10207000CF93DF93EC01888D8823C9F0EA89FB892F
:10208000808185FD05C0A889B9898C9186FD0FC026
:102090000FB607FCF5CF808185FFF2CFA889B989FB
:1020A0008C9185FFEDCFCE010E94C90FE7CFDF9164
:1020B000CF91089580E090E0892B29F00E94BF0F16
:1020C00081110C9400000895009769F0FC010190C3
:1020D0000020E9F73197AF01481B590BBC018FEC89
:1020E00091E00C94540F80E090E00895CF93DF933B
:1020F0000E946410EC0182E191E00E9464108C0F58
:102100009D1FDF91CF9108950E941D144F925F9201
:102110006F927F928F929F92AF92BF92CF92DF92F7
:10212000EF92FF920F931F93CF93DF93CDB7DEB75C
:10213000A1970FB6F894DEBF0FBECDBF2B013C01B7
:102140004B015C019201A50160E070E080E090E04D
:1021500000E20E94FE13A12CE5E9BE2EFAEBCF2E81
:10216000AAE0DA2EE12CF12C00E010E00E94A1138D
:1021700069017A0161E08AE00E94A80E60E08AE0CD
:102180000E94A80E85E191E00E94641019A28E01C0
:102190000F5D1F4FBAE08B2E912CA12CB12CC301E7
:1021A000B201A50194010E947D1329013A01605DED
:1021B000F80162938F01232B242B252B81F7CF016C
:1021C0000E94641085E291E00E94761000E010E029
:1021D000D701C601002E04C0B695A795979587959F
:1021E0000A94D2F7682F617089E00E94A80E61E01E
:1021F0008BE00E94A80E60E08BE00E94A80E0F5FAB
:102200001F4F0032110521F760E28FEC91E00E9430
:10221000EB0F00E010E00115110511F461E001C0C1
:1022200060E089E00E94A80E61E08BE00E94A80EA9
:1022300060E08BE00E94A80E0F5F1F4F0830110571
:1022400051F761E08AE00E94A80E60E08AE00E94F7
:10225000A80EA1960FB6F894DEBF0FBECDBFDF91DA
:10226000CF911F910F91FF90EF90DF90CF90BF9093
:10227000AF909F908F907F906F905F904F90089558
:102280001F920F920FB60F9211242F933F938F93AB
:102290009F93AF93BF938091C7019091C801A09184
:1022A000C901B091CA013091C60123E0230F2D3737
:1022B00020F40196A11DB11D05C026E8230F02964A
:1022C000A11DB11D2093C6018093C7019093C80141
:1022D000A093C901B093CA018091CB019091CC0128
:1022E000A091CD01B091CE010196A11DB11D8093A9
:1022F000CB019093CC01A093CD01B093CE01BF91BF
:10230000AF919F918F913F912F910F900FBE0F90A2
:102310001F9018951F920F920FB60F9211242F93B2
:102320003F934F935F936F937F938F939F93AF935D
:10233000BF93EF93FF938FEC91E00E94C90FFF9141
:10234000EF91BF91AF919F918F917F916F915F912D
:102350004F913F912F910F900FBE0F901F901895A6
:102360001F920F920FB60F9211242F938F939F936A
:10237000EF93FF93E091DF01F091E0018081E09124
:10238000E501F091E60182FD12C090818091E801A3
:102390008F5F8F732091E901821751F0E091E8017E
:1023A000F0E0E153FE4F958F8093E80101C08081FA
:1023B000FF91EF919F918F912F910F900FBE0F90F2
:1023C0001F901895789484B5826084BD84B581602F
:1023D00084BD85B5826085BD85B5816085BD8091F0
:1023E0006E00816080936E00109281008091810068
:1023F0008260809381008091810081608093810060
:10240000809180008160809380008091B100846021
:102410008093B1008091B00081608093B000809182
:102420007A00846080937A0080917A008260809341
:102430007A0080917A00816080937A0080917A009E
:10244000806880937A001092C100E091DF01F091E2
:10245000E00182E08083E091DB01F091DC011082F9
:10246000E091DD01F091DE0180E180831092E701CF
:10247000E091E301F091E40186E08083E091E101E5
:10248000F091E201808180618083E091E101F0912F
:10249000E201808188608083E091E101F091E201B6
:1024A000808180688083E091E101F091E201808188
:1024B0008F7D808389E291E00E94641084E391E043
:1024C0000E9476108FEA91E00E9464108AEB91E0FE
:1024D0000E94761082E391E00E94761060ED77E032
:1024E00080E090E00E941A0F87E00E94890E87E04A
:1024F0000E94890E86E00E94890E88E00E94890E63
:1025000089E00E94890E8AE00E94890E8BE00E9479
:10251000890E61E087E00E94A80E61E087E00E94DA
:10252000A80E60E086E00E94A80E61E088E00E94AC
:10253000A80E61E089E00E94A80E60E08AE00E9497
:10254000A80E60E08BE00E94A80E60E08BE00E9485
:10255000A80E60E08AE00E94A80E60E089E00E9478
:10256000A80E60E088E00E94A80ECFE0D0E0CE0187
:102570000197F1F761E088E00E94A80ECE01019773
:10258000F1F760E088E00E94A80ECE010197F1F714
:1025900060E08BE00E94A80ECE010197F1F761E0A8
:1025A0008BE00E94A80ECE010197F1F760E08BE06E
:1025B0000E94A80ECE010197F1F760E089E00E9429
:1025C000A80E60E08AE00E94A80ECE010197F1F704
:1025D00061E08AE00E94A80E2197F1F760E08AE0AE
:1025E0000E94A80E60EC7EE086E192E00E948610D8
:1025F0000EE91BE194E1C92ED12C80EC882E8EE0EF
:10260000982E86E1A82E82E0B82EC0E0D0E0FE0130
:10261000E00FF11FE859FF4FE491EE2E0E2E000C53
:10262000FF08E7FD0DC0C7010E942214892B41F469
:10263000C7010E942B14892B19F4C501B4012DC0C8
:10264000C7010E942214892B21F5C7010E942B1477
:10265000892BF9F4219680E2880E83E0981EA11C54
:10266000B11CC436D10599F681E0C81AD10809F029
:10267000C4CF055611090B398FEF180709F0BACFEF
:1026800068E873E180E090E00E941A0F0E945A10FF
:10269000AFCF68EE73E080E090E00E948610DACF62
:1026A000EFECF1E01382128288EE93E0A0E0B0E05C
:1026B00084839583A683B78384E091E091838083AC
:1026C00085EC90E09587848784EC90E097878687F7
:1026D00080EC90E0918B808B81EC90E0938B828BEF
:1026E00082EC90E0958B848B86EC90E0978B868BC8
:1026F000118E128E138E148E0895A1E21A2EAA1B2B
:10270000BB1BFD010DC0AA1FBB1FEE1FFF1FA217A1
:10271000B307E407F50720F0A21BB30BE40BF50B9E
:10272000661F771F881F991F1A9469F76095709527
:10273000809590959B01AC01BD01CF0108956894EF
:1027400001C0E8948F929F92CF93DF930E94AD13C4
:10275000DF91CF919F908F90089588249924F40160
:10276000E401B0E49F93AA279A158B049C04ED051D
:10277000FE05CF05D007A10798F4AD2FDC2FCF2F92
:10278000FE2FE92D982C892E982F872F762F652FD5
:10279000542F432F322F2227B85031F7BF9127C033
:1027A0001B2EBF91BB27220F331F441F551F661FCF
:1027B000771F881F991F881C991CEE1FFF1FCC1FB5
:1027C000DD1FAA1FBB1F8A149B04EC05FD05CE0567
:1027D000DF05A007B10748F08A189B08EC09FD093E
:1027E000CE09DF09A00BB10B21601A94E1F62EF49B
:1027F0009401AF01BE01CD01000C08950F93083084
:1028000090F0982F872F762F652F542F432F322F3C
:1028100022270850F4CF220F331F441F551F661F75
:10282000771F881F991F0A95B2F70F910895EE0F31
:10283000FF1F0590F491E02D099481E090E0F89459
:102840000C94361491110C943314803219F0895081
:102850008550C8F7089591110C943314803211F00B
:102860008930D1F70895992788270895F894FFCFE4
:1028700000000000EB0F540F820F3810B30F910FC0
:10288000A50F0D0A00536574204672657175656E5B
:102890006379203A0020487A00536B657463683A84
:1028A000202020002F686F6D652F68616E64696B52
:1028B0006F2F41726475696E6F2D52467061696E3B
:1028C0007465722F41726475696E6F2D536B6574F8
:1028D000636865732F41726475696E6F2D41443969
:1028E0003835302D41736369692D4172745F4361DE
:1028F00074732D534C4F572F41726475696E6F2D51
:102900004144393835302D41736369692D41727402
:102910005F436174732D534C4F572E696E6F005592
:10292000706C6F616465643A20004A616E203139D1
:06293000203230313900B5
:00000001FF
