:100000000C94370E0C945F0E0C945F0E0C945F0EE4
:100010000C945F0E0C945F0E0C945F0E0C945F0EAC
:100020000C945F0E0C945F0E0C945F0E0C945F0E9C
:100030000C945F0E0C945F0E0C945F0E0C945F0E8C
:100040000C948E100C945F0E0C94FE100C94D8102F
:100050000C945F0E0C945F0E0C945F0E0C945F0E6C
:100060000C945F0E0C945F0E202020202020202076
:100070002020202020202020202020202020202080
:100080002020202020202020202020202020202070
:10009000202020202020206161616161202020201B
:1000A0002020202020202020202020202020202050
:1000B000202020202020202020616161202020207D
:1000C0002020202020202020202020200020202050
:1000D0002020202020202020202020202020202020
:1000E0002020202020202020202020202020202010
:1000F000202020202020202020202061612020207E
:10010000616161202020202020202020202020202C
:1001100020202020202020202020202061616161DB
:10012000616120202020202020202020202020204D
:1001300020002020202020202020202020202020DF
:1001400020202020202020202020202020202020AF
:10015000202020202020202020202020202020209F
:1001600061612061202061616161202020202020C8
:10017000202020202020202020202020202020207F
:10018000616120202020616120202020202020206B
:10019000202020202020002020202020202020207F
:1001A000202020202020202020202020202020204F
:1001B000202020202020202020202020202020203F
:1001C0002020202020206120206161206161616168
:1001D000202020202020202020202020202020201F
:1001E00020202020616120206120206161202020CA
:1001F000202020202020202020202000202020201F
:1002000020202020202020202020202020202020EE
:1002100020202020202020202020202020202020DE
:10022000202020202020202020202061202061610B
:100230006120616161616120202020202020202038
:1002400020202020202020206161202020206120EB
:10025000206120202020202020202020202020205D
:1002600000202020202020202020202020202020AE
:10027000202020202020202020202020202020207E
:10028000202020202020202020202020202020206E
:100290006161202061612020616120616120202056
:1002A00020202020202020202020202061612020CC
:1002B00061616161612061202020202020202020B8
:1002C000202020202000202020202020202020204E
:1002D000202020202020202020202020202020201E
:1002E000202020202020202020202020202020200E
:1002F000202020202020612020616120202020203B
:10030000206161612020202020202020202020202A
:1003100061612020616161612020206161202020D5
:1003200020202020202020202020002020202020ED
:1003300020202020202020202020202020202020BD
:1003400020202020202020202020202020202020AD
:10035000202020202020202020202061202020611B
:1003600061612020612020206161616161616161C2
:100370006161616161612020202061612020202075
:10038000616120202020202020202020202020000B
:10039000202020202020202020202020202020205D
:1003A000202020202020202020202020202020204D
:1003B000202020202020202020202020202020203D
:1003C0006161202020616120202061202020616166
:1003D0006120202020202061616120202061616156
:1003E000202020202061612020202020202020208B
:1003F000202020200020202020202020202020201D
:1004000020202020202020202020202020202020EC
:1004100020202020202020202020202020202020DC
:100420002020202020206120206161612020206187
:100430002061202020206120202020616161202077
:100440002020616161206120202061612020202026
:1004500020202020202020202000202020202020BC
:100460002020202020202020202020616161616147
:1004700061612020202020202020202020202020FA
:100480002020202020202020202020616120616168
:100490006120202061202020202061202020206158
:1004A0006120202020202061612020612020206107
:1004B000612020202020202020202020202000201B
:1004C00020202020202020202020202020206161AA
:1004D0006161202020206120202020202020202059
:1004E000202020202020202020202020202020200C
:1004F0002061206161612020202020206120206176
:1005000020206161612020202020202061612020A6
:1005100061202061616120202020202020202020D7
:1005200020202000202020202020202020202020EB
:1005300020206161612020202020206120202020B7
:1005400020202020202020202020202020202020AB
:100550002020202020206120616161612020202056
:1005600061202020202061206120202020202020C8
:100570002061612020612020616120202020202036
:10058000202020202020202000202020202020208B
:100590002020202020206161612020202020202098
:1005A000612020202020202020202020202020200A
:1005B00020202020202020202020206161616161F6
:1005C00020202020206120206120616161612020A5
:1005D0002020202020202061202020206120612058
:1005E000202020202020202020202020200020202B
:1005F00020202020202020202020616161612020F7
:1006000020202020206120202020202020202020A9
:1006100020202020202020202020202020202020DA
:100620002061616120202020206161202020206144
:100630002061202020202020202020202020206138
:100640002061206120202020202020202020202028
:100650002020002020202020202020202020206179
:100660002061202020202020206120202020202008
:10067000202020202020202020202020202020207A
:100680002020202020206161206120202061612025
:100690002020206161206120202020202020202097
:1006A00020202020206120206120202020202020C8
:1006B000202020202020200020202020202020205A
:1006C00020202061616161202020202020616120A4
:1006D000202020202020202020202020202020201A
:1006E0002020202020202020202020616161612006
:1006F0002061616120202020612061202061202074
:1007000020202020202020202061612061612020E5
:1007100020202020202020202020202000202020F9
:1007200020202020202020616120616120202020C5
:100730002061612020202020202020202020202037
:1007400020202020202020202020202020202020A9
:100750006120612020616161202020202020206113
:1007600020612020202020202020202020206161C6
:1007700020616120202020202020202020202020F7
:100780002000202020202020202020206120202048
:1007900020202020206161202020202020202020D7
:1007A0002020202020202020202020202020202049
:1007B00020202020206120612061612061202020F4
:1007C0002020206161616120202020202020202025
:1007D0002020202061612061202020202020202056
:1007E0002020202020200020202020202020202029
:1007F00061612020612020202020616120202020B4
:1008000020202020202020202020202020202020E8
:1008100020202020202020202020612061616120D4
:100820002061202020202061612020202020202005
:100830002020202020202020202061206120202036
:1008400020202020202020202020200020202020C8
:100850002020202020616120206120202020206194
:100860002020202020202020202020202020202088
:100870002020202020202020202020202020206137
:1008800020616161612020202020202061202061E2
:100890006120202020202020202020202020202017
:1008A00020616120202020202020202020202020C6
:1008B0000020202020202020202061202020202017
:1008C00020202061612020202020202020202020A6
:1008D0002020202020202020202020202020202018
:1008E0002020206161206120616161202020202082
:1008F0002020616161616161202020202020202072
:100900002020202020616161202020202020202024
:1009100020202020200020202020202020202061B6
:100920002020202020202020616120202020202045
:1009300020202020202020202020202020202020B7
:100940002020202020202020616161612061206121
:100950002020202020206161206161206120206111
:100960002020202020202020202061616161202083
:100970002020202020202020202000202020202097
:100980002020206161202020202020202061612063
:100990002020202020202020202020202020202057
:1009A0002020202020202020202020202061616184
:1009B00020612020612020202020206161206161B1
:1009C000206120616161616161616161202020615C
:1009D0006120616120202020202020202020200074
:1009E0002020202020202020616120202020202085
:1009F0002020616120202020202020202020202075
:100A000020202020202020202020202020202020E6
:100A1000202061616161616161612020202020618D
:100A2000616161202061202020206161616161613C
:100A300061612020616120616161202020202020EF
:100A40002020202000202020202020202061612044
:100A50002020202020202061612020202020202014
:100A60002020202020202020202020202020202086
:100A700020202020202020616120202020206120B3
:100A800020202020612020616161202020206161E0
:100A9000612020202020202061616120612061618F
:100AA0002020202020202020200020202020202066
:100AB0002020616120202020202020206161202032
:100AC0002020202020202020202020202020202026
:100AD0002020202020202020202020202061206194
:100AE0002020206120202020206120206161616180
:100AF000616161616120202020202020206161202F
:100B00006120202061612020202020202020002042
:100B10002020202020202061612020202020202053
:100B20002061612020202020202020202020202043
:100B300020202020202020202020202020202020B5
:100B40002020616120202020202020202020202023
:100B500061616120202020202020202020202020D2
:100B60002061616120202020202061612020202040
:100B70002020200020202020202020202061202054
:100B800020202020202061612020202020202020E3
:100B90002020202020202020202020202020202055
:100BA0002020202020202061616120206120202041
:100BB00020202020612020616161616161616161AB
:100BC0002020202020206161616120202020202021
:100BD00061202020202020200020202020202020F4
:100BE0002020616120202020202020206120202042
:100BF00020202020202020202020202020202020F5
:100C0000202020202020202020616161616161205E
:100C1000206161616161612020612061612020208B
:100C20002020202020202020202020616120612001
:100C30002020202020612020202020202000202093
:100C40002020202020202061612020202020202022
:100C50002061612020202020202020202020202012
:100C60002020202020202020202020202020616102
:100C700061616161612061206161616120202020EA
:100C8000202061616161202020202020202020611F
:100C9000616161202020202020206161202020200F
:100CA00020200020202020202020202020616120E2
:100CB00020202020202020612020202020202020F3
:100CC0002020202020202020202020202020202024
:100CD0006161616161616161616161206161616145
:100CE0002020206120612020202061612020202000
:100CF00020202061616161202020202020202061AF
:100D000061202020202020002020202020202020C2
:100D1000202061616120202020202020616120208E
:100D20002020202020202020202020202061616100
:100D300061616161616161612061202020616161A7
:100D400061616120202061616161612020616161D8
:100D5000206120202020206161616120202020204E
:100D6000612020206161612020202020002020209F
:100D700020202020202020206161612020202020B0
:100D8000202061612020202020202061202020615F
:100D9000616161616120206161202020202020208C
:100DA0006161616161612061612020612061612078
:100DB0006161612020616161612020616161612068
:100DC000202061616161202020206161612020205C
:100DD00020002020202020202020202020206161B1
:100DE00061202020202020206161612020202020FF
:100DF00020616161616120202020202020202020AE
:100E000020206161202020206161616161612020DA
:100E1000616161202061202061202020612020204C
:100E20006161616120206161612061202020206179
:100E30002061612020200020202020202020202050
:100E400020202061616161612020202020206161DB
:100E5000616161616161616120202020202020208A
:100E600020612020206120202020206161616120FC
:100E700020206161616161616161206120206120E8
:100E8000202020206161612020616161202020619B
:100E90002020202020202061202020002020202031
:100EA00020202020202020202061616161612020FD
:100EB000202020206161616161616120202020206B
:100EC00020202020206120202020202020202061A0
:100ED00020206161612020202020206120206120CD
:100EE000206120206120202061616120206161203B
:100EF000202020206120202020202020616120202F
:100F000000202020202020202020202020202061C0
:100F10006161616120202061616161612020202088
:100F20002020202020202020202061202020202080
:100F300020616161612061202061616120202020A9
:100F40006120202061202061616161206161202099
:100F500020206161202020202061202020202020CE
:100F60002020612020002020202020202020202060
:100F700020202020206161616161616161612061E7
:100F8000202020612020202020202061202020619E
:100F9000206120202061202020206120202061610C
:100FA00061616161616161616161616161612020B3
:100FB000202061612061616120612020202061206A
:100FC0002020202020202061202000202020202000
:100FD000202020202020202061202020616161200D
:100FE000616120206120202061616120202020207B
:100FF00020206161612020206161202020202020AC
:101000006161206161202061616161616161616193
:101010002020206161612020206161616120202009
:1010200020616120202020202020202061612000DC
:1010300020202020202020202020202061616161AC
:10104000616120202020202020202020202020201E
:10105000202020612020202020202020202020204F
:1010600020202061202020206120206120202020BD
:1010700020616120206120202020206120616161A9
:101080002020202020202020202020202020202060
:10109000202061200020202020202020616161612B
:1010A00061616161202020202020202020612020FB
:1010B00020206120202020202020202020202020EF
:1010C000202020202020202020202020616120209E
:1010D000206161612020202061202020202061618A
:1010E00061616161202020202020202020206120BB
:1010F000202020202020206161002020202020614D
:10110000616161202020202020202020202020201C
:10111000202020202061206120202020612020200C
:1011200020202020202020202020202020202020BF
:1011300020616120202020612020202020202020EC
:10114000612061616161202020202020202020205A
:1011500020202020612020202020202061610020EC
:1011600020206161612020202020202020202020BC
:1011700020206161616161616161616161616161E1
:1011800020202020616120202020202020202020DD
:10119000202020202061612020202020206161204B
:1011A000202020202061616120202020202020207C
:1011B00020202020202020202020612020202020EE
:1011C000206161002020616120202020202020203B
:1011D000202020202061616120202020202020204C
:1011E0002061616161616161616161202020202075
:1011F000202020202020202020206161202020206D
:1012000020202061612020202061612020202020DA
:10121000202020202020202061612020202020610B
:101220006120202020612061002061616120202058
:101230002020202020206161616161202020202069
:10124000202020202020202020202020202020615D
:10125000202020202020202020202020202020614D
:1012600020202020202020206161202020206120BB
:1012700020202020202020202020616161202020AB
:10128000202020202061202020206120610020617A
:10129000202020202020202020616161612020204A
:1012A000202020202020202020202020202020203E
:1012B00020202020612020202020202020202020ED
:1012C0002020206161616120612020202020612098
:1012D000202020202020202020202020616161610A
:1012E000202020202020202020206161202020207C
:1012F0002061006161206120202020206161202088
:1013000020202020202020202020202020202020DD
:10131000202020202020206120202020202020208C
:101320002020202020202020616120616161202078
:10133000202020616120202020202020202020202B
:101340006161612020202020202020202020206199
:101350006120202061206100616161202020202027
:101360006161616161202020202020202020202038
:10137000202020202020202020206120202020202C
:1013800020202020202020202020202020616120DB
:101390002020616161612020612020202020202008
:1013A000202020206161612020202020202020207A
:1013B0002020202061612020616120610061612086
:1013C000202020612061202020202020202020209B
:1013D000202020202020202020202020202020200D
:1013E00061202020202020202020202020202020BC
:1013F00020616120202020206161612020202020A8
:10140000202020202020202061612020202020205A
:101410002020202020202020202061202061206109
:101420006100206161616161206161616120202052
:1014300020202020202020202020202020202020AC
:1014400020202061612020206120202020202020D9
:101450002020202020616120616120202020616106
:1014600061202020202020202020202020612020FA
:1014700020202020202020202020202020206161EA
:101480002020202061610020202061616161616174
:101490006161612020202020202020616120202007
:1014A0006161616161616161616161202020202071
:1014B0002020202020202020206161616161616165
:1014C0006120202061206120202020202020202059
:1014D00020612020202020202020202020202020CB
:1014E0002020202061612020206120002020202059
:1014F0002020202061612020202020612061616166
:10150000616161616161612020616161616161614D
:101510006161616161616120202020202020616182
:101520002061616161612020206161616120202072
:10153000202020202061202020202020202020206A
:101540002020202020202020202061612061612097
:1015500000202020202020202061616161616161E4
:1015600061616120202020202020202020202020B8
:1015700020202020202020202020616161616161E5
:101580006161616120202020206161616120206112
:1015900061612020202020202020202020202020C9
:1015A00020202020202020202020202020206120FA
:1015B0006120616120002020202020202020202088
:1015C0006161616161612020202020202020202095
:1015D000202020202020202020202020202020200B
:1015E00020202061616161612020202020202020B6
:1015F0006161612061616161202020202020202024
:1016000020202020202020202020202020202020DA
:1016100020202020616161616120002020202020A5
:1016200020202020202020202020202020202020BA
:1016300020202020202020202020202020202020AA
:1016400020202020202020202020206161206120D7
:101650002020202020206161202061616120202045
:1016600020202020202020202020202061616120B7
:1016700020206161202061202020616161612000C3
:10168000202020202020202020202020202020205A
:10169000202020202020202020202020202020204A
:1016A00020202020202020202020202020202061F9
:1016B00061202061612020202020202061612020E5
:1016C00061612020202020202061616161616161D1
:1016D00061616161616161612020202061202020C1
:1016E0006161202000202020202020202020202098
:1016F00020202020202020202020202020202020EA
:1017000020202020202020202020202020202020D9
:1017100020202061616161202020202020202020C5
:10172000202061202061616120206161616161612F
:1017300020202061202020202061616120202020A5
:1017400020612020206161202000202020202020F6
:101750002020202020202020202020202020202089
:101760002020202020202020202020202020202079
:101770002020202020206161616120202020202065
:101780002020202020612020616161616161616110
:1017900061616161612020202061202020202020C3
:1017A0006120202020202061202020612020002096
:1017B0002020202020202020202020202020202029
:1017C0002020202020202020202020202020202019
:1017D0002020202020202020202061612020202087
:1017E00020202020202020206120202061616120F5
:1017F0002061612020202061206161202020206163
:101800002020202020206120202020206120202056
:101810006161200020202020202020202020202066
:1018200020202020202020202020202020202020B8
:101830002020202020202020202020202020616126
:101840006120202020206120202020206161206153
:1018500061206161616120202020202020612061C1
:1018600020202020616120202020202061202020B5
:101870002061612020616120002020202020202084
:101880002020202020202020202020202020202058
:101890002020202020202020202020202020202048
:1018A00020202061616120612020206120202020F3
:1018B000206161616161616161616120612020205D
:1018C0002020202020202020202061612020202096
:1018D00020612020206161612020616120002020A2
:1018E00020202020202020202020202020202020F8
:1018F00020202020202020202020202020202020E8
:1019000020202020202020206161202061206120D3
:101910006120202020206161616120202020202082
:101920006161612020202020202020612020206172
:101930006120202020202020202061616120616121
:101940006120002020202020202020202020202076
:101950002020202020202020202020202020202087
:1019600020202020202020202020202020612061F5
:1019700020612061206120612020206161612020A0
:1019800061202020202020202061202020202020D5
:101990002020202061612020202020612020206143
:1019A0006161616161202000202020202020202012
:1019B0002020202020202020202020202020202027
:1019C0002020202020202020202020202020202017
:1019D000202061616161612061206120616161613C
:1019E0006161612061202061612020202020202071
:1019F00020202020202061202020612020206161E3
:101A0000616161616161612020202020002020202F
:101A100020202020202020202020202020202020C6
:101A200020202020202020202020202020202020B6
:101A3000202020202020206161616161616161615D
:101A4000616161616161616161612020612020618A
:101A50002061202020202020202020616161616100
:101A6000616161616161616120202020202020206E
:101A70002000202020202020202020202020202086
:101A80002020202020202020202020202020202056
:101A90002020202020202020202020202061616183
:101AA00061616161616161612020616161612061E9
:101AB00020612061206161202020202020206161A0
:101AC0006161616120202020202020202020202012
:101AD0002020202020200020202020202020202026
:101AE00020202020202020202020202020202020F6
:101AF00020202020202020202020202020202020E6
:101B00002020202020616161206120202020206190
:101B100061616120612061206120612020202020FE
:101B20002061616161612020202020202020202070
:101B300020202020202020202020200020202020C5
:101B40002020202020202020202020202020202095
:101B50002020202020202020202020202020202085
:101B60002020202020202020202020202020202075
:101B7000202020202061616161616161616161619A
:101B80006120202061616120202020202020202051
:101B90002020202020202020202020202020202045
:101BA0000020202020202020202020202020202055
:101BB0002020202020202020202020202020202025
:101BC0002020202020202020202020202020202015
:101BD0002020202020202020202020206161616101
:101BE000612061612020616161612020202020202E
:101BF00020202020202020202020202020202020E5
:101C000020202020200020202020202020202020F4
:101C100020202020202020202020202020202020C4
:101C200020202020202020202020202020202020B4
:101C300020202020202020202020202020202020A4
:101C4000202020202061616161616161612020208C
:101C50002020202020202020202020202020202084
:101C600020202020202020202020000048121124A5
:101C70001FBECFEFD8E0DEBFCDBF11E0A0E0B1E0E6
:101C8000E0E6F6E202C005900D92AC3BB107D9F751
:101C900022E0ACEBB1E001C01D92A236B207E1F741
:101CA0001EE0C7E3DEE004C02197FE010E940F138F
:101CB000C633D107C9F70E9430110C942E130C942F
:101CC00000003FB7F8948091C1019091C201A091AA
:101CD000C301B091C40126B5A89B05C02F3F19F0E0
:101CE0000196A11DB11D3FBFBA2FA92F982F88279C
:101CF000820F911DA11DB11DBC01CD0142E0660FF7
:101D0000771F881F991F4A95D1F708958F929F9248
:101D1000AF92BF92CF92DF92EF92FF926B017C0164
:101D20000E94610E4B015C01C114D104E104F10475
:101D3000F1F00E94610EDC01CB0188199909AA0912
:101D4000BB09883E9340A105B10570F321E0C21A9A
:101D5000D108E108F10888EE880E83E0981EA11CE6
:101D6000B11CC114D104E104F10419F7DDCFFF90D7
:101D7000EF90DF90CF90BF90AF909F908F9008959D
:101D8000CF92DF92EF92FF920F931F93CF93DF9347
:101D90006C017A018B01C0E0D0E0CE15DF0581F047
:101DA000D8016D918D01D601ED91FC910190F081EA
:101DB000E02DC6010995892B11F02196EECF7E0109
:101DC000C701DF91CF911F910F91FF90EF90DF90AE
:101DD000CF900895089580E090E00895FC01538D20
:101DE000448D252F30E0842F90E0821B930B5417F5
:101DF00010F0CF96089501970895FC01918D828D82
:101E0000981761F0828DDF01A80FB11D5D968C914E
:101E1000928D9F5F9F73928F90E008958FEF9FEF59
:101E20000895FC01918D828D981731F0828DE80F15
:101E3000F11D858D90E008958FEF9FEF0895FC01CF
:101E4000918D228D892F90E0805C9F4F821B91099C
:101E50008F739927089585EC91E00E941F0F21E070
:101E6000892B09F420E0822F0895FC01848DDF0185
:101E7000A80FB11DA35ABF4F2C91848D90E00196FD
:101E80008F739927848FA689B7892C93A089B189EC
:101E90008C91837080648C93938D848D981306C08D
:101EA0000288F389E02D80818F7D80830895EF92F1
:101EB000FF920F931F93CF93DF93EC0181E0888F04
:101EC0009B8D8C8D981305C0E889F989808185FDEB
:101ED00026C0F62E0B8D10E00F5F1F4F0F731127DA
:101EE000E02E8C8DE8120CC00FB607FCFACFE88903
:101EF000F989808185FFF5CFCE010E94350FF1CFA2
:101F00008B8DFE01E80FF11DE35AFF4FF0829FB762
:101F1000F8940B8FEA89FB89808180620AC09FB7A1
:101F2000F894EE89FF896083E889F989808183705C
:101F3000806480839FBF81E090E0DF91CF911F910B
:101F40000F91FF90EF900895CF93DF93EC01888D70
:101F50008823C9F0EA89FB89808185FD05C0A889AD
:101F6000B9898C9186FD0FC00FB607FCF5CF808133
:101F700085FFF2CFA889B9898C9185FFEDCFCE017D
:101F80000E94350FE7CFDF91CF91089580E090E078
:101F9000892B29F00E942B0F81110C9400000895C9
:101FA000009769F0FC0101900020E9F73197AF013B
:101FB000481B590BBC0185EC91E00C94C00E80E0ED
:101FC00090E00895CF93DF930E94D00FEC0182E15F
:101FD00091E00E94D00F8C0F9D1FDF91CF9108954B
:101FE0000E9415134F925F926F927F928F929F92F1
:101FF000AF92BF92CF92DF92EF92FF920F931F9317
:10200000CF93DF93CDB7DEB7A1970FB6F894DEBFBD
:102010000FBECDBF2B013C014B015C019201A5011C
:1020200060E070E080E090E000E20E94F612A12CF7
:10203000E5E9BE2EFAEBCF2EAAE0DA2EE12CF12C48
:1020400000E010E00E94991269017A012A9A2A9808
:1020500085E191E00E94D00F19A28E010F5D1F4F04
:10206000BAE08B2E912CA12CB12CC301B201A50199
:1020700094010E94751229013A01605DF801629392
:102080008F01232B242B252B81F7CF010E94D00F0A
:1020900085E291E00E94E20F80E090E0B701A601A6
:1020A000082E04C076956795579547950A94D2F700
:1020B00040FF02C0299A01C029982B9A2B980196BB
:1020C0008032910559F760E285EC91E00E94570F4C
:1020D00080E090E0009711F4299A01C029982B9A8A
:1020E0002B98019688309105A9F72A9A2A98A196EB
:1020F0000FB6F894DEBF0FBECDBFDF91CF911F9119
:102100000F91FF90EF90DF90CF90BF90AF909F9096
:102110008F907F906F905F904F9008951F920F92D5
:102120000FB60F9211242F933F938F939F93AF93EA
:10213000BF938091BD019091BE01A091BF01B0916C
:10214000C0013091BC0123E0230F2D3720F401960C
:10215000A11DB11D05C026E8230F0296A11DB11DCA
:102160002093BC018093BD019093BE01A093BF0159
:10217000B093C0018091C1019091C201A091C301AF
:10218000B091C4010196A11DB11D8093C10190932E
:10219000C201A093C301B093C401BF91AF919F91BD
:1021A0008F913F912F910F900FBE0F901F90189518
:1021B0001F920F920FB60F9211242F933F934F93BC
:1021C0005F936F937F938F939F93AF93BF93EF939F
:1021D000FF9385EC91E00E94350FFF91EF91BF9145
:1021E000AF919F918F917F916F915F914F913F91AF
:1021F0002F910F900FBE0F901F9018951F920F9266
:102200000FB60F9211242F938F939F93EF93FF9309
:10221000E091D501F091D6018081E091DB01F09150
:10222000DC0182FD12C090818091DE018F5F8F738F
:102230002091DF01821751F0E091DE01F0E0EB53D5
:10224000FE4F958F8093DE0101C08081FF91EF9159
:102250009F918F912F910F900FBE0F901F90189507
:10226000789484B5826084BD84B5816084BD85B571
:10227000826085BD85B5816085BD80916E0081607D
:1022800080936E0010928100809181008260809323
:102290008100809181008160809381008091800025
:1022A0008160809380008091B10084608093B10050
:1022B0008091B00081608093B00080917A0084604A
:1022C00080937A0080917A00826080937A00809176
:1022D0007A00816080937A0080917A008068809390
:1022E0007A001092C100E091D501F091D60182E010
:1022F0008083E091D101F091D2011082E091D3016D
:10230000F091D40180E180831092DD01E091D90148
:10231000F091DA0186E08083E091D701F091D80155
:10232000808180618083E091D701F091D801808124
:1023300088608083E091D701F091D8018081806826
:102340008083E091D701F091D80180818F7D8083D7
:1023500089E291E00E94D00F84E391E00E94E20FB5
:1023600085EA91E00E94D00F80EB91E00E94E20F9D
:1023700082E391E00E94E20F60ED77E080E090E080
:102380000E94860E8FE084B915B885B185B928986A
:102390008FE090E0FC013197F1F7289AFC0131972A
:1023A000F1F72898FC013197F1F72B98FC01319750
:1023B000F1F72B9AFC013197F1F72B98FC0131973B
:1023C000F1F729982A98FC013197F1F72A9A019799
:1023D000F1F72A9860EC7EE086E192E00E94F20F2D
:1023E0000EE91BE192E0C92ED12C80EC882E8EE004
:1023F000982E86E1A82E82E0B82EC0E0D0E0FE0143
:10240000E00FF11FE859FF4FE491EE2E0E2E000C65
:10241000FF08E7FD0DC0C7010E941A13892B41F484
:10242000C7010E942313892B19F4C501B4012DC0E3
:10243000C7010E941A13892B21F5C7010E9423139B
:10244000892BF9F4219680E2880E83E0981EA11C66
:10245000B11CC436D10599F681E0C81AD10809F03B
:10246000C4CF055611090B398FEF180709F0BACF01
:1024700068EB7BE080E090E00E94860E0E94C60F31
:10248000AFCF68EE73E080E090E00E94F20FDACF09
:10249000E5ECF1E01382128288EE93E0A0E0B0E078
:1024A00084839583A683B78384E091E091838083BE
:1024B00085EC90E09587848784EC90E09787868709
:1024C00080EC90E0918B808B81EC90E0938B828B01
:1024D00082EC90E0958B848B86EC90E0978B868BDA
:1024E000118E128E138E148E0895A1E21A2EAA1B3D
:1024F000BB1BFD010DC0AA1FBB1FEE1FFF1FA217B4
:10250000B307E407F50720F0A21BB30BE40BF50BB0
:10251000661F771F881F991F1A9469F76095709539
:10252000809590959B01AC01BD01CF010895689401
:1025300001C0E8948F929F92CF93DF930E94A512DF
:10254000DF91CF919F908F90089588249924F40172
:10255000E401B0E49F93AA279A158B049C04ED052F
:10256000FE05CF05D007A10798F4AD2FDC2FCF2FA4
:10257000FE2FE92D982C892E982F872F762F652FE7
:10258000542F432F322F2227B85031F7BF9127C045
:102590001B2EBF91BB27220F331F441F551F661FE1
:1025A000771F881F991F881C991CEE1FFF1FCC1FC7
:1025B000DD1FAA1FBB1F8A149B04EC05FD05CE0579
:1025C000DF05A007B10748F08A189B08EC09FD0950
:1025D000CE09DF09A00BB10B21601A94E1F62EF4AD
:1025E0009401AF01BE01CD01000C08950F93083096
:1025F00090F0982F872F762F652F542F432F322F4F
:1026000022270850F4CF220F331F441F551F661F87
:10261000771F881F991F0A95B2F70F910895EE0F43
:10262000FF1F0590F491E02D099481E090E0F8946B
:102630000C942E1391110C942B13803219F08950A5
:102640008550C8F7089591110C942B13803211F026
:102650008930D1F70895992788270895F894FFCFF6
:1026600000000000570FC00EEE0EA40F1F0FFD0E4E
:10267000110F0D0A00536574204672657175656E01
:102680006379203A0020487A00536B657463683A96
:10269000202020002F686F6D652F68616E64696B64
:1026A0006F2F41726475696E6F2D52467061696E4D
:1026B0007465722F41726475696E6F2D536B65740A
:1026C000636865732F41726475696E6F2D4144397B
:1026D0003835302D41736369692D4172745F4361F0
:1026E00074732F41726475696E6F2D4144393835AA
:1026F000302D41736369692D4172745F4361747356
:102700002E696E6F0055706C6F616465643A2000CD
:0C2710004A616E2031392032303139002E
:00000001FF
