:100000000C946A190C9492190C9492190C949219EC
:100010000C9492190C9492190C9492190C949219B4
:100020000C9492190C9492190C9492190C949219A4
:100030000C9492190C9492190C9492190C94921994
:100040000C944B1C0C9492190C94BB1C0C94951C96
:100050000C9492190C9492190C9492190C94921974
:100060000C9492190C9492192020202020202020FA
:100070002020202020202020202020202020202080
:100080002020202020202020202020202020202070
:100090002020202020202020202020202020202060
:1000A00020202020202061616161616120202020CA
:1000B0002020202020202020202020202020202040
:1000C0002020202020202020202020202020202030
:1000D000202020202061612020202020202020209E
:1000E0002020202020202020202020202020002030
:1000F0002020202020202020202020202020202000
:1001000020202020202020202020202020202020EF
:1001100020202020202020202020202020202020DF
:10012000202020202020202020202020206161204D
:1001300020616161612020202020202020202020BB
:1001400020202020202020202020202020202020AF
:100150002020202020202020202061616161616119
:10016000202020202020202020202020202020208F
:10017000202020202000202020202020202020209F
:10018000202020202020202020202020202020206F
:10019000202020202020202020202020202020205F
:1001A000202020202020202020202020202020204F
:1001B00020202020612020202020616161612020FA
:1001C000202020202020202020202020202020202F
:1001D00020202020202020202020202020202061DE
:1001E0006161612020616161202020202020202089
:1001F000202020202020202020202020002020201F
:1002000020202020202020202020202020202020EE
:1002100020202020202020202020202020202020DE
:1002200020202020202020202020202020202020CE
:10023000202020202020202020202061612020203C
:1002400020202061616161202020202020202020AA
:10025000202020202020202020202020202020209E
:100260002020202020616161202020202061612049
:10027000202020202020202020202020202020207E
:10028000202020002020202020202020202020208E
:10029000202020202020202020202020202020205E
:1002A000202020202020202020202020202020204E
:1002B000202020202020202020202020202020203E
:1002C00020206161202061616120206161616120E5
:1002D000202020202020202020202020202020201E
:1002E000202020202020202020206161612020204B
:1002F000202020202061612020202020202020207C
:10030000202020202020202020200020202020200D
:1003100020202020202020202020202020202020DD
:1003200020202020202020202020202020202020CD
:1003300020202020202020202020202020202020BD
:1003400020202020202020202061612020202061EA
:100350006120206161616161202020202020202017
:10036000202020202020202020202020202020208D
:1003700061616120202020616120202061612020B6
:10038000202020202020202020202020202020206D
:10039000200020202020202020202020202020207D
:1003A000202020202020202020202020202020204D
:1003B000202020202020202020202020202020203D
:1003C000202020202020202020202020202020202D
:1003D0002061202020616161612020616161616193
:1003E00061202020202020202020202020202020CC
:1003F00020202020202061616120202020206161B8
:100400006120206161202020202020202020202029
:1004100020202020202020200020202020202020FC
:1004200020202020202020202020202020202020CC
:1004300020202020202020202020202020202020BC
:1004400020202020202020202020202020202020AC
:100450002020202020202020616120202020616198
:100460002020206120206161612020202020202088
:1004700020202020202020202020202020616120FA
:100480002020616161616161612061612020202023
:10049000202020202020202020202020202020007C
:1004A000202020202020202020202020202020204C
:1004B000202020202020202020202020202020203C
:1004C000202020202020202020202020202020202C
:1004D00020202020202020202020202020202061DB
:1004E0006120202061616120202020612020616145
:1004F000616120202020202020202020202020207A
:1005000020202061612020202061616161616161A2
:100510002061612020202020202020202020202059
:1005200020202020202000202020202020202020EB
:1005300020202020202020202020202020202020BB
:1005400020202020202020202020202020202020AB
:10055000202020202020202020202020202020209B
:100560002020202020202061202020206161612087
:100570002020206120202061616120202020202077
:1005800020202020202020202061612020202061A8
:1005900061612061612020206161202020202020D5
:1005A000202020202020202020202020200020206B
:1005B000202020202020202020202020202020203B
:1005C000202020202020202020202020202020202B
:1005D000202020202020202020202020202020201B
:1005E0002020202020202020202020202020616189
:1005F0002020206161616120202020612020206175
:1006000061616161616161616161616161616161DA
:100610006120202020202061616120202020206195
:100620006120202020202020202020202020202089
:1006300020202020002020202020202020202020DA
:1006400020202020202020202020202020202020AA
:10065000202020202020202020202020202020209A
:10066000202020202020202020202020202020208A
:100670002020202020616120202020206161202076
:100680002020206120202020616161612020202025
:1006900020202020616161612020202061202061D4
:1006A00020202020202061612020202020202020C8
:1006B000202020202020202020202000202020205A
:1006C000202020202020202020202020202020202A
:1006D000202020202020202020202020202020201A
:1006E000202020202020202020202020202020200A
:1006F0002020202020202020202020202061612078
:1007000020616161612020202061612020616120E1
:100710002020206120202020202061616161202094
:100720002020202061616161206120202061612002
:1007300020202020202020202020202020202020B9
:1007400020200020202020202020202020202020C9
:100750002020202020202020202020616161616154
:100760006161202020202020202020202020202007
:100770002020202020202020202020202020202079
:100780002020202061612020206161612020202024
:1007900020612020202020202061202020202020D7
:1007A0006161206120202020206161616161206100
:1007B00020202020616120202020202020202020B7
:1007C0002020202020202020200020202020202049
:1007D0002020202020202020202020202020202019
:1007E000616161616161616161612020202020207F
:1007F00020202020202020202020202020202020F9
:1008000020202020202020202020202061202020A7
:100810006161616120202020202020202020206193
:1008200061202020206161612020202020202020C4
:100830002061612020206120202020616120202073
:1008400020202020202020202020202020202020A8
:1008500000202020202020202020202020202020B8
:100860002020202020206161616120202020206143
:100870006120202020202020202020202020202037
:100880002020202020202020202020202020202068
:1008900020202061612020616161612020202020D2
:1008A0002020616120206120202061616161202081
:1008B0002020202020202061616161202020202034
:1008C0002061616120202020202020202020202065
:1008D0002020202020202000202020202020202038
:1008E0002020202020202020202020616161612004
:1008F00020202020202020612020202020202020B7
:1009000020202020202020202020202020202020E7
:1009100020202020202020202020616120612061D3
:1009200061202020202020206161202020612020C3
:100930006161616120202020202020202020206172
:100940006161202061202020616161202020202021
:1009500020202020202020202020202020200020B7
:100960002020202020202020202020202020202087
:100970002061616161202020202020202020612032
:100980002020202020202020202020202020202067
:100990002020202020202020202020202020202057
:1009A0002020616161206161612020202020206180
:1009B0002020202020206161206161202020202033
:1009C00020202020202020612020616120206161E2
:1009D0006161202020202020202020202020202095
:1009E0002020202020002020202020202020202027
:1009F00020202020202020616161612020202020F3
:100A000020202020206120202020202020202020A5
:100A100020202020202020202020202020202020D6
:100A20002020202020202020206161612061612081
:100A30002020202020616120202061206161612030
:100A40006120202020202020202020202020202065
:100A50002061202020612061612020202020202092
:100A600020202020202020202020202000202020A6
:100A700020202020202020202020202020616161B3
:100A800020612020202020202020206161202020A3
:100A90002020202020202020202020202020202056
:100AA0002020202020202020202020202020202046
:100AB000616120616120612020202020616120206F
:100AC0002020206161206161202020202020202022
:100AD00020202020202020202061206161206161D1
:100AE0002020202020202020202020202020202006
:100AF0002020200020202020202020202020202016
:100B00002020202061612020202020202020202063
:100B10002061612020202020202020202020202053
:100B200020202020202020202020202020202020C5
:100B300020202020202020206120612061202020F2
:100B4000202061612020202061206161206120201F
:100B50002020202020202020202020202020202095
:100B60002061612020616120202020202020202081
:100B70002020202020202020202000202020202095
:100B800020202020202020202020616120612020A2
:100B90002020202020202061616120202020202092
:100BA0002020202020202020202020202020202045
:100BB00020202020202020202020202020202061F4
:100BC000612061612020206161616120202020205E
:100BD0006161202061202020202020202020202052
:100BE0002020202020202020612020206120202083
:100BF00020202020202020202020202020202020F5
:100C00002000202020202020202020202020202004
:100C1000616120206161202020202020202061614E
:100C200020202020202020202020202020202020C4
:100C300020202020202020202020202020202020B4
:100C4000202020202020616120612020206161611E
:100C5000612020202020206120206161206161200E
:100C60002020202020202020202020202020616102
:100C70002020206120202020202020202020202033
:100C80002020202020202020002020202020202084
:100C90002020202020202061612020616120202050
:100CA0002020202061616120202020202020202081
:100CB0002020202020202020202020202020202034
:100CC0002020202020202020202020202061616161
:100CD000612020616161616120202020202020208E
:100CE0006161202061202020202020202020202041
:100CF0002020202020206120202061202020202072
:100D00002020202020202020202020202020200003
:100D10002020202020202020202020202061612051
:100D200020612020202020202020616161202020BF
:100D300020202020202020202020202020202020B3
:100D400020202020202020202020202020202020A3
:100D5000202020206120616120206161206120200D
:100D6000202020202020206161206161202020207F
:100D700020202020202020202020202020616120F1
:100D80002061202020202020202020202020202022
:100D90002020202020200020202020202020202073
:100DA0002020202061612020612020202020202080
:100DB0006161612020202020202020202020202070
:100DC0002020202020202020202020202020202023
:100DD00020202020202020202020206120202020D2
:100DE00061202020612020202020202020616161BE
:100DF0006161202020202020202020202020202071
:100E000020202020206161206161202020202020DE
:100E100020202020202020202020202020002020F2
:100E200020202020202020202020616120202061FF
:100E30002020202020202020616120202020202030
:100E400020202020202020202020202020202020A2
:100E50002020202020202020202020202020202092
:100E600020616120206161616120206120202020BB
:100E700020202020616120202020202020202020F0
:100E800020202020202020202020202020612061E0
:100E90006120202020202020202020202020202011
:100EA0002020202000202020202020202020202062
:100EB00020616120202061202020202020206161ED
:100EC0002020202020202020202020202020202022
:100ED0002020202020202020202020202020202012
:100EE000202020202020202061612020616161617C
:100EF00061206120202020202020206120202061EE
:100F000061202020202020202020202020202020A0
:100F1000202020202020616120202020202020204F
:100F200020202020202020202020200020202020E1
:100F3000202020202020202061612020202020202F
:100F4000202020202061612020202020202020201F
:100F50002020202020202020202020202020202091
:100F60002020202020202020202020202020206140
:100F7000612020612020616161202020202020202C
:100F8000202020616161616161612020202020209A
:100F9000202020202020202020202020206161618E
:100FA0002020202020202020202020202020202041
:100FB00020200020202020202020202020206161CF
:100FC000202020202020202020202061616120205E
:100FD0002020202020202020202020202020202011
:100FE0002020202020202020202020202020202001
:100FF000202020202020616120206120616161612A
:10100000202020202020202020616120206120201D
:10101000616120202020202020202020202020204E
:10102000202020616161616120202020202020207B
:1010300020202020202020202000202020202020D0
:10104000202020202061612020202020202020201E
:10105000202061612020202020202020202020200E
:101060002020202020202020202020202020202080
:1010700020202020202020202020202020616161AD
:10108000616161206120612020202020202020201B
:101090006161202061202020612020616161202089
:1010A00020202020202020202020616161616161BA
:1010B0002020202020202020202020202020202030
:1010C00000202020202020202020202061612020BE
:1010D000202020202020202020616120202020208E
:1010E0002020202020202020202020202020202000
:1010F00020202020202020202020202020202020F0
:101100002020202061616120616120202061202059
:10111000202020202020616161202061202061208A
:1011200020616161616161616161616120202020F4
:10113000206161202061616120202020202020206A
:1011400020202020202020002020202020202020BF
:10115000202020616120202020202020202020200D
:1011600061612020202020202020202020202020FD
:10117000202020202020202020202020202020206F
:10118000202020202020202020202061616161611A
:101190006161616161202020202020202061616147
:1011A0002020202061612020202020616161616178
:1011B0006161616161202061616120206161616123
:1011C000202020202020202020202020202000203F
:1011D000202020202020202020206161202020208D
:1011E000202020202020206161202020202020207D
:1011F00020202020202020202020202020202020EF
:1012000020202020202020202020202020202020DE
:101210002020616120202020206161612020202089
:101220002020206161616161616161612020202075
:1012300020616161612020202020206161202061E7
:101240006120206120616161202020202020202059
:1012500020202020200020202020202020202020AE
:10126000206161202020202020202020202061617A
:10127000202020202020202020202020202020206E
:10128000202020202020202020202020202020205E
:1012900020202020202020202061612020202020CC
:1012A000202061202020202020206120202020617B
:1012B000612020202020206161612020202020202A
:1012C0002020202061616161202061202061616116
:1012D000202020202020202020202020002020202E
:1012E000202020202020202061612020202020207C
:1012F000202020202061612020202020202020206C
:1013000020202020202020202020202020202020DD
:1013100020202020202020202020202020202020CD
:101320006161206161202020616120202020202037
:1013300020612020206161206161616161616161E2
:1013400020202020202020202020202061616120DA
:101350006120202020616161202020202020202089
:10136000202020002020202020202020202020615C
:1013700061202020202020202020202061612020AA
:10138000202020202020202020202020202020205D
:10139000202020202020202020202020202020204D
:1013A0002020202020202020616161202020206139
:1013B0002020202020202020202020616161612029
:1013C000202020202020202020202020202020201D
:1013D00020202061616120202020202020616120C8
:1013E000202020202020202020200020202020201D
:1013F000202020202020616120202020202020206B
:10140000202020616120202020202020202020205A
:1014100020202020202020202020202020202020CC
:10142000202020202020202020202020202020617B
:10143000612020202020612020202020202020202A
:101440002020202020206161612061616161616153
:101450006120202020202020616161612061202006
:1014600020202020206161202020202020202020FA
:10147000200020202020202020202020202061610A
:10148000202020202020202020202061202020201B
:10149000202020202020202020202020202020204C
:1014A000202020202020202020202020202020203C
:1014B0002020202020202061206120206161202028
:1014C0002020206161202020206120202061616196
:1014D00061616161202020202020202020202061C7
:1014E0006161616161202020202020206161202035
:1014F000202020202020202000202020202020200C
:101500002020202020616120202020202020202059
:101510002020616120202020202020202020202049
:1015200020202020202020202020202020202020BB
:101530002020202020202020202061616161616125
:101540006120206161616161616161202020202052
:1015500020616161202020202020202020202020C8
:1015600020202020202061612020612020202020B8
:101570002020206161202020202020202020200009
:1015800020202020202020202020202061612020D9
:1015900020202020202020202061612020202020C9
:1015A000202020202020202020202020202020203B
:1015B000202020202020202020202020202020202B
:1015C0006120616161616161202061612061206150
:1015D00061612020202020202061616161616161C2
:1015E00020202020202020202020206161616161B6
:1015F00061202020202020202020616161202020E7
:1016000020202020202000202020202020202020FA
:101610002020206161612020202020202020202007
:101620006161202020202020202020202020202038
:1016300020202020202020202020202020202020AA
:10164000202020616161616161616161616161614D
:101650002061616120616161202020616120612041
:101660002061206161616120202020202020202035
:101670002061616161612020202020202020202025
:1016800020616120202020202020202020002020F8
:101690002020202020202020202020616161202087
:1016A00020202020202020206161202020202020B8
:1016B000202020202020202020202020202020202A
:1016C000202020206161616161616161616161610E
:1016D00061616161616161616120616161612020BD
:1016E0002020202020206120616161202020616174
:1016F0002020202020202020206161612020202027
:101700002020202020202020206161612020202016
:1017100020202020002020202020202020202020E9
:1017200020202061616120202020202020202020F6
:101730006161202020202020202020202020202027
:10174000202020202020616161616161616161610F
:1017500061616161612061202020206161616161BE
:101760006120616120202020612061616161202071
:1017700020206161612061612020202020206161A2
:101780006161612020202020202061612020202014
:101790006161616120202020202020002020202065
:1017A0002020202020202020202061616161202035
:1017B0002020202020202061616161202020202025
:1017C0002020202020202020202061616161616193
:1017D0006120612020616120202020202061206183
:1017E000612061616161612020612020612061616F
:1017F00020206161202061616120202020616161E1
:1018000020202020616161616161202020206161D0
:1018100061616120202020616161616120202020C0
:1018200020200020202020202020202020202020D8
:101830002020616161612020202020202020206163
:1018400061612020202020202020202020202061D5
:101850006161616120202020202020612020202043
:1018600020202020206161612020616161612020B1
:1018700061612020202061616120206120202061A1
:1018800020202020202061202020206161616161D2
:101890002020206161616161612020202020206181
:1018A0006161612020202020200020202020202095
:1018B0002020202020202020202061616161202024
:1018C00020202020202020616161616120202020D3
:1018D00020202061616161612020202020202020C3
:1018E0002020206120202020206161202020202035
:1018F000206161616161616161612020202061611D
:10190000612061616120206161612020206161208E
:1019100020206161612061202061616161202020BF
:1019200020202020202061612061612020202020B3
:1019300000202020202020202020202020202020C7
:101940002061616161616120202020202020202011
:10195000616161616161616161616161202020207B
:1019600020202020202020206161202020206120B4
:1019700020202020202020616161616120206120E1
:1019800020616161616120616161206161202020CD
:101990006120202020202061616161202020616180
:1019A0006161202020202020202020202020612074
:1019B00061612020202020002020202020202020C5
:1019C0002020202020202020206161612061616191
:1019D00061202020202020202061616161616161FF
:1019E0006161202020202020202020202020206134
:1019F00061202061202020202020202061612020E3
:101A0000616161612061202020202020612020610F
:101A100061202020612020206120202020202061C2
:101A200061202020206161202020202020202020F3
:101A30002020202020612020616120202020002003
:101A40002020202020202020202020202020202096
:101A50002061616120206120202020202020616100
:101A60006161616120202061202020202020202031
:101A70002020202020206120202020202020202025
:101A800020206120202061612020616161202020D0
:101A90002020206120202061612020206120202042
:101AA000202020616161616120202061612020206F
:101AB00020202020202020202020202061202061A4
:101AC00061202020200020202020202020202020F5
:101AD00020202020202020202061616161206120C1
:101AE00020206161616161616120202020612020EE
:101AF0002020202020206120202020202061202064
:101B00002020202020612020612020202061202012
:101B10002061616161202020202020202020206180
:101B200061616161616161616161206161202020A9
:101B300020616161202061202020202020202020A1
:101B400020202061202020616120202000202020F2
:101B50002020202020202020202020202020202085
:101B60002061616161616161616161616120612028
:101B70006120612061202020202020202020612061
:101B80002020206120206120202020202020612092
:101B9000202020612020202061612061616161613D
:101BA00061616161616161616161616161202020E8
:101BB000202061206120206161612020612020209F
:101BC0002020612020202020202020202020616152
:101BD0002020200020202020202020202020202025
:101BE000202020202020202020616161616161612E
:101BF000612020616120202020616161612020201E
:101C000020202020206161616161202020616161CC
:101C100020202020202020616161612061616120FD
:101C200020616161616161616161612061612020A8
:101C300020616161616161202020206161616161D9
:101C4000202020206161612020202020616120204F
:101C500020202061616120202020002020202020E1
:101C60002020202020202020202020202020206133
:101C70006161616120202020202020202020202060
:101C80002020202020202020202061202020202013
:101C90002020202020202020202020202020202044
:101CA00020202020206161612061202020202061EF
:101CB000616161616161612020202061202020201C
:101CC00061202061616161202020202020202020CF
:101CD0002020202020202020202020202061612082
:101CE0002000202020202020202020202020202014
:101CF000616161616161616161202020202020209B
:101D00002020202020202020612020202020202092
:101D10002061202020202020202020202020202082
:101D20002020202020202020202020206161202031
:101D3000206161202020202020616161202061201D
:101D400020202061202061206161616161202020CC
:101D50002020202020202020202020202020202083
:101D60002020202061612020002020202020202011
:101D700020206161616161616161616120202020D9
:101D800020202020202020202061202020202061D1
:101D90002020202020202061202020202020202002
:101DA0002020202020202020202020202020202033
:101DB000202061616120202020616161612020205C
:101DC000202061202020202020202061616161618D
:101DD0006161202020202020202020202020202081
:101DE000612020202020202020202061616120000F
:101DF000202020202020206161616161612020205D
:101E000020202020202020202020202020202020D2
:101E10002020202020202020202020202061202081
:101E200020202020202020202020202020202020B2
:101E30002020202020202020206161202020202020
:101E40002061202020202020202020202061202010
:101E500020616161616161202020202020202020FC
:101E600020202020202020616120202020202020F0
:101E700020206161612000202020202061616161BB
:101E80002020202020202020202020202020202052
:101E9000202020202020206161616161616161203A
:101EA00020202061202020202020202020202020F1
:101EB0002020202020202020202020202020202022
:101EC00061612020202020202061616120202020CD
:101ED000202020202061616161616120202020207C
:101EE00020202020202020202020202020202061B1
:101EF00061202020202020202061616120002020FE
:101F0000202061616120202020202020202020200E
:101F10002020202020206161616161616161616137
:101F200061616161616161616120202020206161E6
:101F3000616120202020202020202020202020201F
:101F4000202020202020616120202020202020200F
:101F5000206161202020202020202061616120203C
:101F60002020202020202020202020202020202071
:101F700020202020202020616120202020202020DF
:101F8000616161200020202061612020202020202C
:101F9000202020202020202020202061616161203D
:101FA000202020202020202020202020206161616E
:101FB00061616161616161616120202020202020D8
:101FC000202020202020202020202020206161208F
:101FD000202020202020202020616120202020207F
:101FE000206161612020202020202020202020202E
:101FF00020202020616161202020202020202061DD
:1020000020202020202020612061610020206161AB
:1020100061612020202020202020202020202061FD
:1020200061616161202020202020202020202020AC
:10203000202020202020202020202020202061611E
:102040002020202020202020202020202020202090
:10205000202020206120202020202020202020203F
:1020600061612020202020206120202020202020AD
:10207000202020202020202061616161202020205C
:1020800020202020202061612020202020202020CE
:10209000616100206161612020202020202020201B
:1020A00020206161616161612020202020202020AA
:1020B0002020202020202020202020202020202020
:1020C00020202020206120202020202020202020CF
:1020D00020202020202020202020616120612061FC
:1020E000612020202020202061612020202020202D
:1020F000202020202020202020202020206161611D
:1021000061612020202020202020202020616120CB
:1021100020202020202020616100206161202020DB
:1021200020202020202020616161612020202020AB
:10213000202020202020202020202020202020209F
:10214000202020202020202020202020612020204E
:10215000202020202020202020202020202020207F
:1021600020616161206161206161202020202020A8
:10217000612020202020202020202020202020201E
:10218000202061616161202020202020202020204B
:1021900020202020206161202020202061206161FA
:1021A0000061612061612020202020202061616188
:1021B000202020202020202020202020202020201F
:1021C000202020202020202020202020202020200F
:1021D00020612020202020202020202020202020BE
:1021E0002020202020202020616161206161616128
:1021F000612020202020612020202020202020205D
:1022000020202020202020616161612020202020CA
:10221000202020202020202020202020616120203C
:1022200020206161616120006161616120202020C6
:102230002020206161616161612020202020202018
:10224000202020202020202020202020202020208E
:1022500020202020202061206120202020202020FC
:1022600020202020202020202020202020206161EC
:102270006120202020616161616120202020612097
:10228000202020202020202020202020206161618B
:1022900061202020202020202020202020202020FD
:1022A00020202061612020202061206161200061C8
:1022B0006161202020202020612061616161202057
:1022C000202020202020202020202020202020200E
:1022D00020202020202020202020202020206120BD
:1022E00020202020202020202020202020202020EE
:1022F0002020202020616120202020202061616199
:10230000612020202061202020202020202020204B
:1023100020202020616161202020202020202020FA
:1023200020202020202020202020616120202061EA
:1023300061206161200020616120202020616120F6
:1023400061616120202020202020202020202020CA
:10235000202020202020202020202020202020207D
:1023600020202020612020202061202020202020EB
:10237000202020202020202020202061616120209A
:102380002020202020616161612020206120202008
:1023900020202020202020202020616120202020BB
:1023A000202020202020202020202020202020202D
:1023B00020206120202061202061612000202061F8
:1023C0006161616161206161616161202020202083
:1023D00020202020202020202020202020202020FD
:1023E000202020202020202020616161202020202A
:1023F000612020202020202020202020202020209C
:1024000020616161616161202020202020616120C4
:10241000612020202020202020202020202020207B
:10242000616120202020202020202020202020202A
:102430002020202020202020616161202020206198
:102440006120200020202061616161616161616122
:102450006161616120202020202020202020202078
:102460002020202020202061616161612061616164
:10247000612020202020202020202020202020201B
:102480002020202020202061616161616161616103
:102490002020202020616120616120202020202038
:1024A00020202020202061612020202020202020AA
:1024B000202020202020202020202020202020201C
:1024C00061616161202061612020002020202020A6
:1024D0002020616120616161612020202020202076
:1024E000202020616161616161616161616161619F
:1024F00061616161616161616161616161616161CC
:1025000061616161616120202020202020206161C3
:1025100020202061616161612020202020616161B3
:1025200061202020202020202020202020616120E8
:10253000202020202020202020202020202020209B
:102540002020202020202061616161202061612005
:102550002000202020202020202020206161616197
:102560006161202020616120616161616120202022
:1025700061616120202020202020202020616161D5
:10258000616161616161616161616161202020203F
:1025900020202020616120206161616161612061F2
:1025A0002020202061612061612020202020202027
:1025B00020202020612020202020202020202020DA
:1025C00020202020202020202020202020202061CA
:1025D0006161202061612020002020202020202017
:1025E00020202020616161616161616161616161DF
:1025F000612020202020202020202020202020209A
:1026000020202020202020202020202020202020CA
:1026100020616161616161616161616120202020EF
:102620002020202061616161612020616161616120
:10263000202020202020202020202020202020209A
:10264000202020202020202020202020202020208A
:102650002020202020612061612020616120200055
:1026600020202020202020202020202020616161A7
:1026700061616161616120202020202020202020D4
:10268000202020202020202020202020202020204A
:1026900020202020202020202020206161616161F5
:1026A00061616120202020202020202020616161A4
:1026B00061202061616161202020202020202020D5
:1026C000202020202020202020202020202020200A
:1026D0002020202020202020202020202061616137
:1026E0006161612020200020202020202020202047
:1026F00020202020202020202020202020202020DA
:1027000020202020202020202020202020202020C9
:1027100020202020202020202020202020202020B9
:102720002020202020202061612020202020202027
:102730002020202020616161202061616161612091
:102740002020202020202020202020202020202089
:102750002020202020202020202020202020202079
:102760006120202020616161616120202000202003
:102770002020202020202020202020202020202059
:102780002020202020202020202020202020202049
:102790002020202020202020202020202020202039
:1027A00020202020202020202020202020206161A7
:1027B0006161616120202020202020202020616193
:1027C0002020616161612020202020202020202005
:1027D000202020202061616161206161616161616F
:1027E00061616161612020202020202020616161E1
:1027F00061202020002020202020202020202020B8
:1028000020202020202020202020202020202020C8
:1028100020202020202020202020202020202020B8
:1028200020202020202020202020202020202020A8
:102830002020202061612020202061612020202094
:102840002020202020616120202061616120202043
:1028500020202020202061616161616161616161EE
:10286000616161616161616161616120202020615C
:1028700020202020206161612020200020202020B5
:102880002020202020202020202020202020202048
:102890002020202020202020202020202020202038
:1028A0002020202020202020202020202020202028
:1028B0002020202020202020206161616120202014
:1028C0002020202020202020202020206161202086
:1028D000202061616120202020616161616161616E
:1028E00020202020202020202020206161616120E4
:1028F00020202020202020612020202061616120D4
:1029000020200020202020202020202020202020E7
:1029100020202020202020202020202020202020B7
:1029200020202020202020202020202020202020A7
:102930002020202020202020202020202020616115
:102940006161616161612020202020202020202001
:1029500020206120206161206161616161206161ED
:1029600061616161616120202020202061202020A0
:102970002020202020616120202020202020616153
:1029800020202020616120202000202020202020E5
:102990002020202020202020202020202020202037
:1029A0002020202020202020202020202020202027
:1029B0002020202020202020202020202020202017
:1029C0002020202061616161202020202020202003
:1029D00020202020202020612020202061616161B2
:1029E0006161616161616120616161616161612059
:1029F0002020202061202020202020202061612014
:102A000020202020206161202020206161202020C2
:102A100000202020202020202020202020202020D6
:102A200020202020202020202020202020202020A6
:102A30002020202020202020202020202020202096
:102A400020202020202020202020616161202020C3
:102A50002020202020202020202020202061202035
:102A6000202061616161202061616161202020205E
:102A700020616120616120202020206161202020D0
:102A80002020202020612020202020202061612083
:102A900020202061612020002020202020202020D4
:102AA0002020202020202020202020202020202026
:102AB0002020202020202020202020202020202016
:102AC0002020202020202020202020202020202006
:102AD0006161612020202020202020202020202033
:102AE000202020616120206161612020616161619D
:102AF0006120202020202020206161206161202091
:102B00002020206161202020202020202061202002
:102B100020202020616120202020616120200020D1
:102B200020202020202020202020202020202020A5
:102B30002020202020202020202020202020202095
:102B40002020202020202020202020202020202085
:102B50002020202020202061616120206161202030
:102B600020206120202020202020612061616161DF
:102B7000616161616161612020202020202020208E
:102B800020202020202020202020206161202020C3
:102B90002020202061202020202061616120202031
:102BA00020616120200020202020202020202020C3
:102BB0002020202020202020202020202020202015
:102BC0002020202020202020202020202020202005
:102BD0002020202020202020202020202020616173
:102BE00061202061612020206161202020202020A0
:102BF0006161616161616161202020616161616188
:102C00006120202020202020202020202020202083
:102C100020206161612020202020202061202020B0
:102C200020616120202020206161202000202020C0
:102C30002020202020202020202020202020202094
:102C40002020202020202020202020202020202084
:102C50002020202020202020202020202020202074
:102C6000202020202061616161206161206120615C
:102C7000612020612020206161616161612020204C
:102C800020202020202061206120202020202020C2
:102C90002020202061202020206161612020202030
:102CA000202020612020202061206120206161619E
:102CB00061202000202020202020202020202020F3
:102CC0002020202020202020202020202020202004
:102CD00020202020202020202020202020202020F4
:102CE0002020202020202020202020206120616121
:102CF000206120206120206120206120202061614E
:102D000061616120206120202020202020202020BF
:102D10002061202020202020202020612020202031
:102D2000206161202020202020612020202061615E
:102D300061616161616161202020002020202020EC
:102D40002020202020202020202020202020202083
:102D50002020202020202020202020202020202073
:102D60002020202020202020202020202020202063
:102D7000202020616161616161202061206120204B
:102D800061616120616161616120206161202020B9
:102D900061202020202020202020202020202020F2
:102DA0002020202020202020616120202020206160
:102DB0006120616161616161616161202020202089
:102DC0002000202020202020202020202020202023
:102DD00020202020202020202020202020202020F3
:102DE00020202020202020202020202020202020E3
:102DF000202020202020202020206161616161614D
:102E00006161612061202061616161616161616175
:102E100020616120202061612020202020202020AE
:102E20002020202020202020202061202020206120
:102E300061616161616161616161616161616120C3
:102E400020202020202020200020202020202020A2
:102E50002020202020202020202020202020202072
:102E60002020202020202020202020202020202062
:102E70002020202020202020202020202020202052
:102E800020206161616161206161616161616161F5
:102E900061616120616161206161202020612020E9
:102EA000206120616120202020202020202020205F
:102EB0002061616161616161616161616161616143
:102EC00061202020202020202020202020202000E1
:102ED00020202020202020202020202020202020F2
:102EE00020202020202020202020202020202020E2
:102EF00020202020202020202020202020202020D2
:102F0000202020202020202020206161616161613B
:102F100061616161616161612020206161612061A5
:102F2000202061616120206161206120202020201B
:102F30002020202020206161616161616161612048
:102F40002020202020202020202020202020202081
:102F50002020202020200020202020202020202091
:102F60002020202020202020202020202020202061
:102F70002020202020202020202020202020202051
:102F80002020202020202020202020202020202041
:102F90002020616161616161616161616120202066
:102FA000202061616120612020612061202061205A
:102FB000616120202020202020202061616161614A
:102FC000616120202020202020202020202020207F
:102FD0002020202020202020202020202000202011
:102FE00020202020202020202020202020202020E1
:102FF00020202020202020202020202020202020D1
:1030000020202020202020202020202020202020C0
:1030100020202020202020202020202020202020B0
:10302000202020202020202020616161616161201A
:1030300061206120206120202020202020202020CD
:10304000616161616120202020202020202020203B
:103050002020202020202020202020202020202070
:103060002020202000202020202020202020202080
:103070002020202020202020202020202020202050
:103080002020202020202020202020202020202040
:103090002020202020202020202020202020202030
:1030A0002020202020202020202020202020202020
:1030B0002061616161616161616161206161616182
:1030C00061202020206161616120202020202020BB
:1030D00020202020202020202020202020202020F0
:1030E0002020202020202020202020002020202000
:1030F00020202020202020202020202020202020D0
:1031000020202020202020202020202020202020BF
:1031100020202020202020202020202020202020AF
:10312000202020202020202020202020202020209F
:103130002020202020202020202061616161616109
:1031400061206161612020616161616161612020B4
:10315000202020202020202020202020202020206F
:10316000202020202020202020202020202020205F
:10317000202000202020202020202020202020206F
:10318000202020202020202020202020202020203F
:10319000202020202020202020202020202020202F
:1031A000202020202020202020202020202020201F
:1031B000202020202020202020202020202020200F
:1031C0002020202020206161616161616161616175
:1031D000616161202020202020202020202020202C
:1031E00020202020202020202020202020202020DF
:1031F00020202020202020202000202020202020EF
:1032000020202020202020202020202020202020BE
:1032100020202020202020202020202020202020AE
:10322000202020202020202020202020202020209E
:10323000202020202020202020202020202020208E
:10324000202020202020202020202020202020207E
:10325000616120206161202020202020202020206A
:10326000202020202020202020202020202020205E
:10327000202020202020202020202020202020204E
:103280000000000008000201000003040700000025
:10329000000000000000000000250028002B0000B6
:1032A000000000240027002A00040404040404048D
:1032B00004020202020202030303030303010204E5
:1032C00008102040800102040810200102040810A8
:1032D00020005B1E11241FBECFEFD8E0DEBFCDBFA4
:1032E00011E0A0E0B1E0E6E8FEE302C005900D9237
:1032F000A83CB107D9F722E0A8ECB1E001C01D92CB
:10330000AE36B207E1F719E1CAE6D9E104C0219768
:10331000FE010E94221FC936D107C9F70E94ED1C89
:103320000C94411F0C94000090E0FC01E354FD4C10
:103330002491FC01E755FD4C8491882399F090E09D
:10334000880F991FFC01E156FD4CA591B491FC0139
:10335000EB56FD4C859194918FB7F894EC91E22B4C
:10336000EC938FBF089590E0FC01EF57FD4C249142
:10337000FC01E354FD4C3491FC01E755FD4CE49114
:10338000EE2309F43CC0222339F1233091F038F4C4
:103390002130A9F0223001F584B58F7D12C027308D
:1033A00091F02830A1F02430B9F4809180008F7D15
:1033B00003C0809180008F77809380000DC084B51A
:1033C0008F7784BD09C08091B0008F7703C0809152
:1033D000B0008F7D8093B000F0E0EE0FFF1FEB5642
:1033E000FD4CA591B4919FB7F894611104C08C91E4
:1033F0003095382302C0EC913E2B3C939FBF08953B
:103400003FB7F8948091CD019091CE01A091CF016A
:10341000B091D00126B5A89B05C02F3F19F00196A9
:10342000A11DB11D3FBFBA2FA92F982F8827820F4A
:10343000911DA11DB11DBC01CD0142E0660F771F9A
:10344000881F991F4A95D1F708958F929F92AF9246
:10345000BF92CF92DF92EF92FF926B017C010E94AC
:10346000001A4B015C01C114D104E104F104F1F034
:103470000E94001ADC01CB0188199909AA09BB092D
:10348000883E9340A105B10570F321E0C21AD1082E
:10349000E108F10888EE880E83E0981EA11CB11C9B
:1034A000C114D104E104F10419F7DDCFFF90EF90CE
:1034B000DF90CF90BF90AF909F908F900895CF9264
:1034C000DF92EF92FF920F931F93CF93DF936C01E4
:1034D0007A018B01C0E0D0E0CE15DF0581F0D80184
:1034E0006D918D01D601ED91FC910190F081E02D5F
:1034F000C6010995892B11F02196EECF7E01C701F7
:10350000DF91CF911F910F91FF90EF90DF90CF90BF
:103510000895089580E090E00895FC01538D448D56
:10352000252F30E0842F90E0821B930B541710F06E
:10353000CF96089501970895FC01918D828D98177B
:1035400061F0828DDF01A80FB11D5D968C91928D87
:103550009F5F9F73928F90E008958FEF9FEF089584
:10356000FC01918D828D981731F0828DE80FF11D4D
:10357000858D90E008958FEF9FEF0895FC01918D68
:10358000228D892F90E0805C9F4F821B91098F7361
:103590009927089581ED91E00E94BE1A21E0892BC0
:1035A00009F420E0822F0895FC01848DDF01A80F2B
:1035B000B11DA35ABF4F2C91848D90E001968F735B
:1035C0009927848FA689B7892C93A089B1898C917A
:1035D000837080648C93938D848D981306C00288C9
:1035E000F389E02D80818F7D80830895EF92FF9293
:1035F0000F931F93CF93DF93EC0181E0888F9B8D16
:103600008C8D981305C0E889F989808185FD26C0D5
:10361000F62E0B8D10E00F5F1F4F0F731127E02E5A
:103620008C8DE8120CC00FB607FCFACFE889F98937
:10363000808185FFF5CFCE010E94D41AF1CF8B8D0A
:10364000FE01E80FF11DE35AFF4FF0829FB7F89497
:103650000B8FEA89FB89808180620AC09FB7F8944A
:10366000EE89FF896083E889F989808183708064AD
:1036700080839FBF81E090E0DF91CF911F910F91F8
:10368000FF90EF900895CF93DF93EC01888D88230E
:10369000C9F0EA89FB89808185FD05C0A889B989BF
:1036A0008C9186FD0FC00FB607FCF5CF808185FF9A
:1036B000F2CFA889B9898C9185FFEDCFCE010E9408
:1036C000D41AE7CFDF91CF91089580E090E0892B65
:1036D00029F00E94CA1A81110C94000008950097E5
:1036E00069F0FC0101900020E9F73197AF01481B18
:1036F000590BBC0181ED91E00C945F1A80E090E0E1
:103700000895CF93DF930E946F1BEC0182E191E05B
:103710000E946F1B8C0F9D1FDF91CF9108950E9417
:10372000281F4F925F926F927F928F929F92AF92DB
:10373000BF92CF92DF92EF92FF920F931F93CF939E
:10374000DF93CDB7DEB7A1970FB6F894DEBF0FBEFB
:10375000CDBF2B013C014B015C019201A50160E052
:1037600070E080E090E000E20E94091FA12CE5E9F2
:10377000BE2EFAEBCF2EAAE0DA2EE12CF12C00E0DF
:1037800010E00E94AC1E69017A0161E08AE00E94AB
:10379000B31960E08AE00E94B31985E191E00E94CC
:1037A0006F1B19A28E010F5D1F4FBAE08B2E912C5B
:1037B000A12CB12CC301B201A50194010E94881E65
:1037C00029013A01605DF80162938F01232B242BBC
:1037D000252B81F7CF010E946F1B85E291E00E94AB
:1037E000811B00E010E0D701C601002E04C0B69591
:1037F000A795979587950A94D2F7682F617089E00D
:103800000E94B31961E08BE00E94B31960E08BE085
:103810000E94B3190F5F1F4F0032110521F760E2BC
:1038200081ED91E00E94F61A00E010E0011511050B
:1038300011F461E001C060E089E00E94B31961E029
:103840008BE00E94B31960E08BE00E94B3190F5F18
:103850001F4F0830110551F761E08AE00E94B3194B
:1038600060E08AE00E94B319A1960FB6F894DEBF1B
:103870000FBECDBFDF91CF911F910F91FF90EF90C1
:10388000DF90CF90BF90AF909F908F907F906F9080
:103890005F904F9008951F920F920FB60F921124D0
:1038A0002F933F938F939F93AF93BF938091C901C1
:1038B0009091CA01A091CB01B091CC013091C80187
:1038C00023E0230F2D3720F40196A11DB11D05C063
:1038D00026E8230F0296A11DB11D2093C8018093F5
:1038E000C9019093CA01A093CB01B093CC01809100
:1038F000CD019091CE01A091CF01B091D001019660
:10390000A11DB11D8093CD019093CE01A093CF0155
:10391000B093D001BF91AF919F918F913F912F9123
:103920000F900FBE0F901F9018951F920F920FB619
:103930000F9211242F933F934F935F936F937F9335
:103940008F939F93AF93BF93EF93FF9381ED91E09C
:103950000E94D41AFF91EF91BF91AF919F918F91E7
:103960007F916F915F914F913F912F910F900FBE7B
:103970000F901F9018951F920F920FB60F9211245F
:103980002F938F939F93EF93FF93E091E101F09139
:10399000E2018081E091E701F091E80182FD12C02F
:1039A00090818091EA018F5F8F732091EB018217E4
:1039B00051F0E091EA01F0E0EF52FE4F958F8093D5
:1039C000EA0101C08081FF91EF919F918F912F912A
:1039D0000F900FBE0F901F901895789484B5826059
:1039E00084BD84B5816084BD85B5826085BD85B5A3
:1039F000816085BD80916E00816080936E00109221
:103A0000810080918100826080938100809181009B
:103A1000816080938100809180008160809380002C
:103A20008091B10084608093B1008091B00081608A
:103A30008093B00080917A00846080937A008091B6
:103A40007A00826080937A0080917A00816080930E
:103A50007A0080917A00806880937A001092C10089
:103A6000E091E101F091E20182E08083E091DD01EB
:103A7000F091DE011082E091DF01F091E00180E140
:103A800080831092E901E091E501F091E60186E082
:103A90008083E091E301F091E40180818061808383
:103AA000E091E301F091E401808188608083E091FE
:103AB000E301F091E401808180688083E091E3017B
:103AC000F091E40180818F7D808389E291E00E9402
:103AD0006F1B84E391E00E94811B81EB91E00E94C7
:103AE0006F1B8CEB91E00E94811B82E391E00E94AE
:103AF000811B60ED77E080E090E00E94251A87E06E
:103B00000E94941987E00E94941986E00E949419FB
:103B100088E00E94941989E00E9494198AE00E942A
:103B200094198BE00E94941961E087E00E94B31918
:103B300061E087E00E94B31960E086E00E94B3195B
:103B400061E088E00E94B31961E089E00E94B31946
:103B500060E08AE00E94B31960E08BE00E94B31934
:103B600060E08BE00E94B31960E08AE00E94B31924
:103B700060E089E00E94B31960E088E00E94B31918
:103B8000CFE0D0E0CE010197F1F761E088E00E943C
:103B9000B319CE010197F1F760E088E00E94B319F4
:103BA000CE010197F1F760E08BE00E94B319CE01DE
:103BB0000197F1F761E08BE00E94B319CE01019704
:103BC000F1F760E08BE00E94B319CE010197F1F7A5
:103BD00060E089E00E94B31960E08AE00E94B319B6
:103BE000CE010197F1F761E08AE00E94B3192197B5
:103BF000F1F760E08AE00E94B31960EC7EE086E1B4
:103C000092E00E94911B02E911E399E0C92ED12CA8
:103C100080EC882E8EE0982E86E1A82E82E0B82EC9
:103C2000C0E0D0E0FE01E00FF11FE859FF4FE49142
:103C3000EE2E0E2E000CFF08E7FD0DC0C7010E94FE
:103C40002D1F892B41F4C7010E94361F892B19F4BF
:103C5000C501B4012DC0C7010E942D1F892B21F57C
:103C6000C7010E94361F892BF9F421968CE2880E39
:103C700081E0981EA11CB11CC638D10599F681E0DF
:103C8000C81AD10809F0C4CF0758110909378FEFB6
:103C9000180709F0BACF68E873E180E090E00E946D
:103CA000251A0E94651BAFCF68EE73E080E090E0BC
:103CB0000E94911BDACFE1EDF1E01382128288EECF
:103CC00093E0A0E0B0E084839583A683B78384E08B
:103CD00091E09183808385EC90E09587848784ECE4
:103CE00090E09787868780EC90E0918B808B81ECC9
:103CF00090E0938B828B82EC90E0958B848B86ECAA
:103D000090E0978B868B118E128E138E148E0895F1
:103D1000A1E21A2EAA1BBB1BFD010DC0AA1FBB1FCF
:103D2000EE1FFF1FA217B307E407F50720F0A21B41
:103D3000B30BE40BF50B661F771F881F991F1A94AE
:103D400069F760957095809590959B01AC01BD01D8
:103D5000CF010895689401C0E8948F929F92CF9309
:103D6000DF930E94B81EDF91CF919F908F900895AE
:103D700088249924F401E401B0E49F93AA279A15BA
:103D80008B049C04ED05FE05CF05D007A10798F430
:103D9000AD2FDC2FCF2FFE2FE92D982C892E982FB9
:103DA000872F762F652F542F432F322F2227B8507D
:103DB00031F7BF9127C01B2EBF91BB27220F331FA6
:103DC000441F551F661F771F881F991F881C991C49
:103DD000EE1FFF1FCC1FDD1FAA1FBB1F8A149B04F1
:103DE000EC05FD05CE05DF05A007B10748F08A18F0
:103DF0009B08EC09FD09CE09DF09A00BB10B21607E
:103E00001A94E1F62EF49401AF01BE01CD01000C2D
:103E100008950F93083090F0982F872F762F652FF5
:103E2000542F432F322F22270850F4CF220F331F55
:103E3000441F551F661F771F881F991F0A95B2F7E9
:103E40000F910895EE0FFF1F0590F491E02D099456
:103E500081E090E0F8940C94411F91110C943E1F66
:103E6000803219F089508550C8F7089591110C944B
:103E70003E1F803211F08930D1F7089599278827A5
:063E80000895F894FFCF45
:103E860000000000F61A5F1A8D1A431BBE1A9C1A10
:103E9600B01A0D0A00536574204672657175656E19
:103EA6006379203A0020487A00536B657463683A58
:103EB600202020002F686F6D652F68616E64696B26
:103EC6006F2F41726475696E6F2D52467061696E0F
:103ED6007465722F41726475696E6F2D536B6574CC
:103EE600636865732F41726475696E6F2D4144393D
:103EF6003835302D41736369692D4172745F4361B2
:103F060074732D48495245532F41726475696E6F1B
:103F16002D4144393835302D41736369692D41721D
:103F2600745F436174732D48495245532E696E6F11
:103F36000055706C6F616465643A20004A616E20BA
:083F460031372032303139001F
:00000001FF
